{
  "_format": "hh3-artifact-1",
  "contractName": "AntNFT",
  "sourceName": "contracts/core/AntNFT.sol",
  "abi": [
    {
      "inputs": [],
      "stateMutability": "nonpayable",
      "type": "constructor"
    },
    {
      "inputs": [],
      "name": "AlreadyClaimed",
      "type": "error"
    },
    {
      "inputs": [],
      "name": "AntNotFound",
      "type": "error"
    },
    {
      "inputs": [],
      "name": "AntStaked",
      "type": "error"
    },
    {
      "inputs": [],
      "name": "BreedingCooldownActive",
      "type": "error"
    },
    {
      "inputs": [
        {
          "internalType": "address",
          "name": "sender",
          "type": "address"
        },
        {
          "internalType": "uint256",
          "name": "tokenId",
          "type": "uint256"
        },
        {
          "internalType": "address",
          "name": "owner",
          "type": "address"
        }
      ],
      "name": "ERC721IncorrectOwner",
      "type": "error"
    },
    {
      "inputs": [
        {
          "internalType": "address",
          "name": "operator",
          "type": "address"
        },
        {
          "internalType": "uint256",
          "name": "tokenId",
          "type": "uint256"
        }
      ],
      "name": "ERC721InsufficientApproval",
      "type": "error"
    },
    {
      "inputs": [
        {
          "internalType": "address",
          "name": "approver",
          "type": "address"
        }
      ],
      "name": "ERC721InvalidApprover",
      "type": "error"
    },
    {
      "inputs": [
        {
          "internalType": "address",
          "name": "operator",
          "type": "address"
        }
      ],
      "name": "ERC721InvalidOperator",
      "type": "error"
    },
    {
      "inputs": [
        {
          "internalType": "address",
          "name": "owner",
          "type": "address"
        }
      ],
      "name": "ERC721InvalidOwner",
      "type": "error"
    },
    {
      "inputs": [
        {
          "internalType": "address",
          "name": "receiver",
          "type": "address"
        }
      ],
      "name": "ERC721InvalidReceiver",
      "type": "error"
    },
    {
      "inputs": [
        {
          "internalType": "address",
          "name": "sender",
          "type": "address"
        }
      ],
      "name": "ERC721InvalidSender",
      "type": "error"
    },
    {
      "inputs": [
        {
          "internalType": "uint256",
          "name": "tokenId",
          "type": "uint256"
        }
      ],
      "name": "ERC721NonexistentToken",
      "type": "error"
    },
    {
      "inputs": [],
      "name": "InsufficientPayment",
      "type": "error"
    },
    {
      "inputs": [],
      "name": "InsufficientXP",
      "type": "error"
    },
    {
      "inputs": [],
      "name": "InvalidAddress",
      "type": "error"
    },
    {
      "inputs": [],
      "name": "InvalidBreedingPair",
      "type": "error"
    },
    {
      "inputs": [],
      "name": "MaxBreedsReached",
      "type": "error"
    },
    {
      "inputs": [],
      "name": "MaxLevel",
      "type": "error"
    },
    {
      "inputs": [],
      "name": "NotAntOwner",
      "type": "error"
    },
    {
      "inputs": [],
      "name": "NotOwner",
      "type": "error"
    },
    {
      "inputs": [
        {
          "internalType": "address",
          "name": "owner",
          "type": "address"
        }
      ],
      "name": "OwnableInvalidOwner",
      "type": "error"
    },
    {
      "inputs": [
        {
          "internalType": "address",
          "name": "account",
          "type": "address"
        }
      ],
      "name": "OwnableUnauthorizedAccount",
      "type": "error"
    },
    {
      "inputs": [],
      "name": "ReentrancyGuardReentrantCall",
      "type": "error"
    },
    {
      "inputs": [],
      "name": "SoulboundBreedingLimit",
      "type": "error"
    },
    {
      "inputs": [],
      "name": "TransferFailed",
      "type": "error"
    },
    {
      "inputs": [],
      "name": "Unauthorized",
      "type": "error"
    },
    {
      "anonymous": false,
      "inputs": [
        {
          "indexed": true,
          "internalType": "address",
          "name": "owner",
          "type": "address"
        },
        {
          "indexed": true,
          "internalType": "uint256",
          "name": "parent1",
          "type": "uint256"
        },
        {
          "indexed": true,
          "internalType": "uint256",
          "name": "parent2",
          "type": "uint256"
        },
        {
          "indexed": false,
          "internalType": "uint256",
          "name": "newAntId",
          "type": "uint256"
        }
      ],
      "name": "AntBred",
      "type": "event"
    },
    {
      "anonymous": false,
      "inputs": [
        {
          "indexed": true,
          "internalType": "uint256",
          "name": "tokenId",
          "type": "uint256"
        },
        {
          "indexed": false,
          "internalType": "uint256",
          "name": "newLevel",
          "type": "uint256"
        }
      ],
      "name": "AntLeveledUp",
      "type": "event"
    },
    {
      "anonymous": false,
      "inputs": [
        {
          "indexed": true,
          "internalType": "address",
          "name": "owner",
          "type": "address"
        },
        {
          "indexed": true,
          "internalType": "uint256",
          "name": "tokenId",
          "type": "uint256"
        },
        {
          "indexed": false,
          "internalType": "uint256",
          "name": "dna",
          "type": "uint256"
        },
        {
          "indexed": false,
          "internalType": "bool",
          "name": "isStarter",
          "type": "bool"
        }
      ],
      "name": "AntMinted",
      "type": "event"
    },
    {
      "anonymous": false,
      "inputs": [
        {
          "indexed": true,
          "internalType": "uint256",
          "name": "tokenId",
          "type": "uint256"
        },
        {
          "indexed": true,
          "internalType": "address",
          "name": "owner",
          "type": "address"
        }
      ],
      "name": "AntStaked",
      "type": "event"
    },
    {
      "anonymous": false,
      "inputs": [
        {
          "indexed": true,
          "internalType": "uint256",
          "name": "tokenId",
          "type": "uint256"
        },
        {
          "indexed": true,
          "internalType": "address",
          "name": "owner",
          "type": "address"
        }
      ],
      "name": "AntUnstaked",
      "type": "event"
    },
    {
      "anonymous": false,
      "inputs": [
        {
          "indexed": true,
          "internalType": "address",
          "name": "owner",
          "type": "address"
        },
        {
          "indexed": true,
          "internalType": "address",
          "name": "approved",
          "type": "address"
        },
        {
          "indexed": true,
          "internalType": "uint256",
          "name": "tokenId",
          "type": "uint256"
        }
      ],
      "name": "Approval",
      "type": "event"
    },
    {
      "anonymous": false,
      "inputs": [
        {
          "indexed": true,
          "internalType": "address",
          "name": "owner",
          "type": "address"
        },
        {
          "indexed": true,
          "internalType": "address",
          "name": "operator",
          "type": "address"
        },
        {
          "indexed": false,
          "internalType": "bool",
          "name": "approved",
          "type": "bool"
        }
      ],
      "name": "ApprovalForAll",
      "type": "event"
    },
    {
      "anonymous": false,
      "inputs": [
        {
          "indexed": false,
          "internalType": "uint256",
          "name": "newCost",
          "type": "uint256"
        }
      ],
      "name": "BreedingCostUpdated",
      "type": "event"
    },
    {
      "anonymous": false,
      "inputs": [
        {
          "indexed": true,
          "internalType": "address",
          "name": "previousOwner",
          "type": "address"
        },
        {
          "indexed": true,
          "internalType": "address",
          "name": "newOwner",
          "type": "address"
        }
      ],
      "name": "OwnershipTransferred",
      "type": "event"
    },
    {
      "anonymous": false,
      "inputs": [
        {
          "indexed": true,
          "internalType": "address",
          "name": "from",
          "type": "address"
        },
        {
          "indexed": true,
          "internalType": "address",
          "name": "to",
          "type": "address"
        },
        {
          "indexed": true,
          "internalType": "uint256",
          "name": "tokenId",
          "type": "uint256"
        }
      ],
      "name": "Transfer",
      "type": "event"
    },
    {
      "inputs": [],
      "name": "BREEDING_COST",
      "outputs": [
        {
          "internalType": "uint256",
          "name": "",
          "type": "uint256"
        }
      ],
      "stateMutability": "view",
      "type": "function"
    },
    {
      "inputs": [],
      "name": "BREEDING_FEE_BPS",
      "outputs": [
        {
          "internalType": "uint256",
          "name": "",
          "type": "uint256"
        }
      ],
      "stateMutability": "view",
      "type": "function"
    },
    {
      "inputs": [],
      "name": "MAX_BREEDING_ATTEMPTS",
      "outputs": [
        {
          "internalType": "uint256",
          "name": "",
          "type": "uint256"
        }
      ],
      "stateMutability": "view",
      "type": "function"
    },
    {
      "inputs": [],
      "name": "MAX_LEVEL",
      "outputs": [
        {
          "internalType": "uint256",
          "name": "",
          "type": "uint256"
        }
      ],
      "stateMutability": "view",
      "type": "function"
    },
    {
      "inputs": [],
      "name": "STARTER_ANT_COUNT",
      "outputs": [
        {
          "internalType": "uint256",
          "name": "",
          "type": "uint256"
        }
      ],
      "stateMutability": "view",
      "type": "function"
    },
    {
      "inputs": [
        {
          "internalType": "uint256",
          "name": "tokenId",
          "type": "uint256"
        },
        {
          "internalType": "uint256",
          "name": "amount",
          "type": "uint256"
        }
      ],
      "name": "addExperience",
      "outputs": [],
      "stateMutability": "nonpayable",
      "type": "function"
    },
    {
      "inputs": [
        {
          "internalType": "address",
          "name": "to",
          "type": "address"
        },
        {
          "internalType": "uint256",
          "name": "tokenId",
          "type": "uint256"
        }
      ],
      "name": "approve",
      "outputs": [],
      "stateMutability": "nonpayable",
      "type": "function"
    },
    {
      "inputs": [
        {
          "internalType": "address",
          "name": "owner",
          "type": "address"
        }
      ],
      "name": "balanceOf",
      "outputs": [
        {
          "internalType": "uint256",
          "name": "",
          "type": "uint256"
        }
      ],
      "stateMutability": "view",
      "type": "function"
    },
    {
      "inputs": [
        {
          "internalType": "uint256",
          "name": "parent1",
          "type": "uint256"
        },
        {
          "internalType": "uint256",
          "name": "parent2",
          "type": "uint256"
        }
      ],
      "name": "breedAnts",
      "outputs": [],
      "stateMutability": "payable",
      "type": "function"
    },
    {
      "inputs": [
        {
          "internalType": "uint256",
          "name": "tokenId",
          "type": "uint256"
        }
      ],
      "name": "burn",
      "outputs": [],
      "stateMutability": "nonpayable",
      "type": "function"
    },
    {
      "inputs": [
        {
          "internalType": "uint256",
          "name": "tokenId",
          "type": "uint256"
        }
      ],
      "name": "getAntDetails",
      "outputs": [
        {
          "internalType": "uint256",
          "name": "dna",
          "type": "uint256"
        },
        {
          "internalType": "uint256",
          "name": "level",
          "type": "uint256"
        },
        {
          "internalType": "uint256",
          "name": "experience",
          "type": "uint256"
        },
        {
          "internalType": "uint256",
          "name": "breedCount",
          "type": "uint256"
        },
        {
          "internalType": "uint256",
          "name": "birthTime",
          "type": "uint256"
        },
        {
          "internalType": "bool",
          "name": "staked",
          "type": "bool"
        },
        {
          "internalType": "bool",
          "name": "soulbound",
          "type": "bool"
        }
      ],
      "stateMutability": "view",
      "type": "function"
    },
    {
      "inputs": [
        {
          "internalType": "uint256",
          "name": "tokenId",
          "type": "uint256"
        }
      ],
      "name": "getAntPower",
      "outputs": [
        {
          "internalType": "uint256",
          "name": "",
          "type": "uint256"
        }
      ],
      "stateMutability": "view",
      "type": "function"
    },
    {
      "inputs": [
        {
          "internalType": "uint256",
          "name": "tokenId",
          "type": "uint256"
        }
      ],
      "name": "getApproved",
      "outputs": [
        {
          "internalType": "address",
          "name": "",
          "type": "address"
        }
      ],
      "stateMutability": "view",
      "type": "function"
    },
    {
      "inputs": [],
      "name": "getColonyManager",
      "outputs": [
        {
          "internalType": "address",
          "name": "",
          "type": "address"
        }
      ],
      "stateMutability": "view",
      "type": "function"
    },
    {
      "inputs": [
        {
          "internalType": "address",
          "name": "owner",
          "type": "address"
        }
      ],
      "name": "getOwnerAnts",
      "outputs": [
        {
          "internalType": "uint256[]",
          "name": "",
          "type": "uint256[]"
        }
      ],
      "stateMutability": "view",
      "type": "function"
    },
    {
      "inputs": [],
      "name": "getTournamentSystem",
      "outputs": [
        {
          "internalType": "address",
          "name": "",
          "type": "address"
        }
      ],
      "stateMutability": "view",
      "type": "function"
    },
    {
      "inputs": [
        {
          "internalType": "address",
          "name": "",
          "type": "address"
        }
      ],
      "name": "hasClaimedStarter",
      "outputs": [
        {
          "internalType": "bool",
          "name": "",
          "type": "bool"
        }
      ],
      "stateMutability": "view",
      "type": "function"
    },
    {
      "inputs": [
        {
          "internalType": "address",
          "name": "user",
          "type": "address"
        }
      ],
      "name": "hasClaimedStarterAnts",
      "outputs": [
        {
          "internalType": "bool",
          "name": "",
          "type": "bool"
        }
      ],
      "stateMutability": "view",
      "type": "function"
    },
    {
      "inputs": [
        {
          "internalType": "address",
          "name": "owner",
          "type": "address"
        },
        {
          "internalType": "address",
          "name": "operator",
          "type": "address"
        }
      ],
      "name": "isApprovedForAll",
      "outputs": [
        {
          "internalType": "bool",
          "name": "",
          "type": "bool"
        }
      ],
      "stateMutability": "view",
      "type": "function"
    },
    {
      "inputs": [
        {
          "internalType": "uint256",
          "name": "tokenId",
          "type": "uint256"
        }
      ],
      "name": "isStaked",
      "outputs": [
        {
          "internalType": "bool",
          "name": "",
          "type": "bool"
        }
      ],
      "stateMutability": "view",
      "type": "function"
    },
    {
      "inputs": [
        {
          "internalType": "uint256",
          "name": "tokenId",
          "type": "uint256"
        }
      ],
      "name": "levelUp",
      "outputs": [],
      "stateMutability": "nonpayable",
      "type": "function"
    },
    {
      "inputs": [],
      "name": "mintStarterAnts",
      "outputs": [],
      "stateMutability": "nonpayable",
      "type": "function"
    },
    {
      "inputs": [
        {
          "internalType": "address",
          "name": "player",
          "type": "address"
        }
      ],
      "name": "mintStarterAntsForPlayer",
      "outputs": [],
      "stateMutability": "nonpayable",
      "type": "function"
    },
    {
      "inputs": [],
      "name": "name",
      "outputs": [
        {
          "internalType": "string",
          "name": "",
          "type": "string"
        }
      ],
      "stateMutability": "view",
      "type": "function"
    },
    {
      "inputs": [],
      "name": "owner",
      "outputs": [
        {
          "internalType": "address",
          "name": "",
          "type": "address"
        }
      ],
      "stateMutability": "view",
      "type": "function"
    },
    {
      "inputs": [
        {
          "internalType": "uint256",
          "name": "tokenId",
          "type": "uint256"
        }
      ],
      "name": "ownerOf",
      "outputs": [
        {
          "internalType": "address",
          "name": "",
          "type": "address"
        }
      ],
      "stateMutability": "view",
      "type": "function"
    },
    {
      "inputs": [],
      "name": "renounceOwnership",
      "outputs": [],
      "stateMutability": "nonpayable",
      "type": "function"
    },
    {
      "inputs": [
        {
          "internalType": "address",
          "name": "from",
          "type": "address"
        },
        {
          "internalType": "address",
          "name": "to",
          "type": "address"
        },
        {
          "internalType": "uint256",
          "name": "tokenId",
          "type": "uint256"
        }
      ],
      "name": "safeTransferFrom",
      "outputs": [],
      "stateMutability": "nonpayable",
      "type": "function"
    },
    {
      "inputs": [
        {
          "internalType": "address",
          "name": "from",
          "type": "address"
        },
        {
          "internalType": "address",
          "name": "to",
          "type": "address"
        },
        {
          "internalType": "uint256",
          "name": "tokenId",
          "type": "uint256"
        },
        {
          "internalType": "bytes",
          "name": "data",
          "type": "bytes"
        }
      ],
      "name": "safeTransferFrom",
      "outputs": [],
      "stateMutability": "nonpayable",
      "type": "function"
    },
    {
      "inputs": [
        {
          "internalType": "address",
          "name": "operator",
          "type": "address"
        },
        {
          "internalType": "bool",
          "name": "approved",
          "type": "bool"
        }
      ],
      "name": "setApprovalForAll",
      "outputs": [],
      "stateMutability": "nonpayable",
      "type": "function"
    },
    {
      "inputs": [
        {
          "internalType": "address",
          "name": "manager",
          "type": "address"
        }
      ],
      "name": "setColonyManager",
      "outputs": [],
      "stateMutability": "nonpayable",
      "type": "function"
    },
    {
      "inputs": [
        {
          "internalType": "uint256",
          "name": "tokenId",
          "type": "uint256"
        },
        {
          "internalType": "bool",
          "name": "staked",
          "type": "bool"
        }
      ],
      "name": "setStaked",
      "outputs": [],
      "stateMutability": "nonpayable",
      "type": "function"
    },
    {
      "inputs": [
        {
          "internalType": "address",
          "name": "system",
          "type": "address"
        }
      ],
      "name": "setTournamentSystem",
      "outputs": [],
      "stateMutability": "nonpayable",
      "type": "function"
    },
    {
      "inputs": [
        {
          "internalType": "bytes4",
          "name": "interfaceId",
          "type": "bytes4"
        }
      ],
      "name": "supportsInterface",
      "outputs": [
        {
          "internalType": "bool",
          "name": "",
          "type": "bool"
        }
      ],
      "stateMutability": "view",
      "type": "function"
    },
    {
      "inputs": [],
      "name": "symbol",
      "outputs": [
        {
          "internalType": "string",
          "name": "",
          "type": "string"
        }
      ],
      "stateMutability": "view",
      "type": "function"
    },
    {
      "inputs": [
        {
          "internalType": "uint256",
          "name": "tokenId",
          "type": "uint256"
        }
      ],
      "name": "tokenURI",
      "outputs": [
        {
          "internalType": "string",
          "name": "",
          "type": "string"
        }
      ],
      "stateMutability": "view",
      "type": "function"
    },
    {
      "inputs": [
        {
          "internalType": "address",
          "name": "from",
          "type": "address"
        },
        {
          "internalType": "address",
          "name": "to",
          "type": "address"
        },
        {
          "internalType": "uint256",
          "name": "tokenId",
          "type": "uint256"
        }
      ],
      "name": "transferFrom",
      "outputs": [],
      "stateMutability": "nonpayable",
      "type": "function"
    },
    {
      "inputs": [
        {
          "internalType": "address",
          "name": "newOwner",
          "type": "address"
        }
      ],
      "name": "transferOwnership",
      "outputs": [],
      "stateMutability": "nonpayable",
      "type": "function"
    }
  ],
  "bytecode": "0x60806040523461037757604080519081016001600160401b0381118282101761028d576040908152600b82526a14dbdb191a595c88105b9d60aa1b602083015280519081016001600160401b0381118282101761028d57604052600481526314d0539560e21b602082015281516001600160401b03811161028d575f54600181811c9116801561036d575b602082101461026f57601f811161030b575b50602092601f82116001146102ac57928192935f926102a1575b50508160011b915f199060031b1c1916175f555b80516001600160401b03811161028d57600154600181811c91168015610283575b602082101461026f57601f811161020c575b50602091601f82116001146101ac579181925f926101a1575b50508160011b915f199060031b1c1916176001555b331561018e5760068054336001600160a01b03198216811790925560405191906001600160a01b03167f8be0079c531659141344cd1fd0a4f28419497f9722a3daafe3b4186f6b6457e05f80a360016007556001600855612e36908161037c8239f35b631e4fbdf760e01b5f525f60045260245ffd5b015190505f80610116565b601f1982169260015f52805f20915f5b8581106101f4575083600195106101dc575b505050811b0160015561012b565b01515f1960f88460031b161c191690555f80806101ce565b919260206001819286850151815501940192016101bc565b60015f527fb10e2d527612073b26eecdfd717e6a320cf44b4afac2b0732d9fcbe2b7fa0cf6601f830160051c81019160208410610265575b601f0160051c01905b81811061025a57506100fd565b5f815560010161024d565b9091508190610244565b634e487b7160e01b5f52602260045260245ffd5b90607f16906100eb565b634e487b7160e01b5f52604160045260245ffd5b015190505f806100b6565b601f198216935f8052805f20915f5b8681106102f357508360019596106102db575b505050811b015f556100ca565b01515f1960f88460031b161c191690555f80806102ce565b919260206001819286850151815501940192016102bb565b5f80527f290decd9548b62a8d60345a988386fc84ba6bc95484008f6362f93160ef3e563601f830160051c81019160208410610363575b601f0160051c01905b818110610358575061009c565b5f815560010161034b565b9091508190610342565b90607f169061008a565b5f80fdfe6080806040526004361015610012575f80fd5b5f905f3560e01c90816301ffc9a714611f775750806306fdde0314611e86578063081812fc14611e4a578063095ea7b314611d605780630ce90ec214611c6b578063180f893914611c24578063195c5742146116f357806319a6326614611a995780631fedb0be14611a4357806323b872dd14611a2c57806342842e0e146119fb57806342966c68146118065780634324450b146117e4578063479bdfa2146117305780634a8be1f8146116f357806353902715146115f95780635d240c58146115625780636352211e1461153257806370a08231146114e1578063715018a61461148657806374103cfb1461146a5780637d120dc61461143e5780638319953d14610e1d5780638da5cb5b14610df45780638e27458614610d7b57806395d89b4114610c6e578063a22cb46514610bca578063a49062d414610b26578063b88d4fde14610b2b578063b980f64a14610b26578063baa51f8614610ade578063bb24d94114610ac2578063c87b56dd146103dc578063cddf76eb146103b3578063d842b1ae14610327578063e985e9c5146102cf578063f2fde38b146102465763fc11f3e4146101c0575f80fd5b34610243576020366003190112610243576101d9612006565b600c546001600160a01b03163314158061022e575b610220576101fa612536565b815b6003811061020d5782600160075580f35b600190610219836128c2565b50016101fc565b6282b42960e81b8252600482fd5b506006546001600160a01b03163314156101ee565b80fd5b503461024357602036600319011261024357610260612006565b610268612556565b6001600160a01b031680156102bb57600680546001600160a01b0319811683179091556001600160a01b03167f8be0079c531659141344cd1fd0a4f28419497f9722a3daafe3b4186f6b6457e05f80a380f35b631e4fbdf760e01b82526004829052602482fd5b50346102435760403660031901126102435760406102eb612006565b916102f461201c565b9260018060a01b031681526005602052209060018060a01b03165f52602052602060ff60405f2054166040519015158152f35b50346102435760203660031901126102435760043581526009602052604081209060048201549081156103a4575060ff8260e0935492600182015491600281015460066003830154920154936040519687526020870152604086015260608501526080840152818116151560a084015260081c16151560c0820152f35b630a1684b160e21b8152600490fd5b5034610243578060031936011261024357600c546040516001600160a01b039091168152602090f35b5034610243576020366003190112610243576004358082526009602052600460408320015415610ab357808252600960205261041b6040832091612c1b565b916104268254612d88565b608081015160828110156109fe57506040516104436040826120f9565b600681526521b7b6b6b7b760d11b6020820152925b60a08201518061097c57506040516104716040826120f9565b600781526629b7b63234b2b960c91b6020820152935b825161049290612c1b565b9260208101516104a190612c1b565b9060408101516104b090612c1b565b90606001516104be90612c1b565b9160405195869460208601997f7b2274726169745f74797065223a22436c617373222c2276616c7565223a22008b5280516020819201603f89015e860162089f4b60ea1b603f820152604281017f7b2274726169745f74797065223a22526172697479222c2276616c7565223a22905281516020819301606283015e01603f0162089f4b60ea1b6023820152602681017f7b2274726169745f74797065223a22537472656e677468222c2276616c756522905260468101601d60f91b905281516020819301604783015e0160230160248101611f4b60f21b9052602681017f7b2274726169745f74797065223a225370656564222c2276616c7565223a0000905281516020819301604483015e0160240160208101611f4b60f21b9052602281017f7b2274726169745f74797065223a22446566656e7365222c2276616c7565223a905281516020819301604283015e0160200160228101611f4b60f21b9052602481017f7b2274726169745f74797065223a22496e74656c6c6967656e6365222c227661905264363ab2911d60d91b604482015281516020819301604983015e0160220160278101607d60f81b905203602701601e198101835260010161068690836120f9565b600181015461069490612c1b565b9060028101546106a390612c1b565b60038201546106b190612c1b565b916006015460081c60ff165f14610956576040516106d06040826120f9565b60048152637472756560e01b6020820152925b60405196879560208701997f7b226e616d65223a2022536f6c6469657220416e7420230000000000000000008b528051602081920160378a015e61088b60f21b6037918901918201527f226465736372697074696f6e223a20224120756e6971756520736f6c6469657260398201527508185b9d08199c9bdb481d1a194818dbdb1bdb9e488b60521b60598201526e2261747472696275746573223a205b60881b606f8201529051918290607e83015e01603701604781017f2c7b2274726169745f74797065223a224c6576656c222c2276616c7565223a00905281516020819301606683015e01604701601f8101607d60f81b9052602081017f2c7b2274726169745f74797065223a22457870657269656e6365222c2276616c9052633ab2911d60e11b604082015281516020819301604483015e01601f0160258101607d60f81b9052602681017f2c7b2274726169745f74797065223a22427265656420436f756e74222c227661905264363ab2911d60d91b604682015281516020819301604b83015e0160250160268101607d60f81b9052602781017f2c7b2274726169745f74797065223a22536f756c626f756e64222c2276616c7590526232911d60e91b604782015281516020819301604a83015e0160260160248101607d60f81b905260258101615d7d60f01b905203602401601c19810183526003016108ea90836120f9565b604051928392602084017f646174613a6170706c69636174696f6e2f6a736f6e3b757466382c00000000009052518091603b85015e820190603b82015203603b01601f198101825261093c90826120f9565b6040518091602082526020820161095291611fe2565b0390f35b6040516109646040826120f9565b600581526466616c736560d81b6020820152926106e3565b600181036109ad57506040516109936040826120f9565b60068152652bb7b935b2b960d11b60208201525b93610487565b6002036109d9576040516109c26040826120f9565b600581526414d8dbdd5d60da1b60208201526109a7565b6040516109e76040826120f9565b600581526428bab2b2b760d91b60208201526109a7565b60b4811015610a2e5750604051610a166040826120f9565b60048152635261726560e01b60208201525b92610458565b60dc811015610a5c5750604051610a466040826120f9565b60048152634570696360e01b6020820152610a28565b60fa1115610a8d57604051610a726040826120f9565b60098152684c6567656e6461727960b81b6020820152610a28565b604051610a9b6040826120f9565b60068152654d797468696360d01b6020820152610a28565b630a1684b160e21b8252600482fd5b5034610243578060031936011261024357602060405160038152f35b5034610243576020366003190112610243576004358082526009602052600460408320015415610ab357600660408360ff936020955260098552200154166040519015158152f35b612091565b503461024357608036600319011261024357610b45612006565b610b4d61201c565b6044356064359167ffffffffffffffff8311610bc65736602384011215610bc65782600401359385610b7e8661211b565b94610b8c60405196876120f9565b8686523660248883010111610bc25786610bbf976024602093018389013786010152610bb9838383612223565b33612b1e565b80f35b5080fd5b8480fd5b503461024357604036600319011261024357610be4612006565b610bec61206c565b6001600160a01b03909116908115610c5a57338352600560205260408320825f52602052610c298160405f209060ff801983541691151516179055565b60405190151581527f17307eab39ab6107e8899845ad3d59bd9653f200f220920489ca2b5937696c3160203392a380f35b630b61174360e31b83526004829052602483fd5b50346102435780600319360112610243576040519080600154908160011c91600181168015610d71575b602084108114610d5d57838652908115610d365750600114610cd9575b61095284610cc5818603826120f9565b604051918291602083526020830190611fe2565b600181527fb10e2d527612073b26eecdfd717e6a320cf44b4afac2b0732d9fcbe2b7fa0cf6939250905b808210610d1c57509091508101602001610cc582610cb5565b919260018160209254838588010152019101909291610d03565b60ff191660208087019190915292151560051b85019092019250610cc59150839050610cb5565b634e487b7160e01b83526022600452602483fd5b92607f1692610c98565b5034610243578060031936011261024357610d94612536565b338152600a60205260ff604082205416610de557805b60038110610dd25750338152600a60205260408120600160ff19825416179055600160075580f35b600190610dde336128c2565b5001610daa565b630c8d9eab60e31b8152600490fd5b50346102435780600319360112610243576006546040516001600160a01b039091168152602090f35b610e263661207b565b90610e2f612536565b805f52600960205260405f20825f52600960205260405f20906004810154158015611432575b6114235760068101549060ff82168015611415575b61140657610e7784612514565b6001600160a01b031633148015906113eb575b6113dc576003810191825492600385018054916005850192835490600589019560ff87549160081c169060ff60068c015460081c169367016345785d8a000034106113cd578d8d146113be57600a8b10156113af57600a8410156113af57610ef19061245d565b42106113a057610f009061245d565b42106113a05780611395575b61137a5781611389575b5061137a576101f434023481046101f4143415171561127857610f40612710610f46920434612208565b96612215565b9055610f528154612215565b9055429055429055549154610f72610f6c60085494612d88565b91612d88565b90604051602081019042825244604082015242606082015285608082015260808152610f9f60a0826120f9565b51902090610fb0815184519061246d565b60011c92600a830615611342575b610fd1602083015160208301519061246d565b60011c600a8460041c06156112fc575b610ff4604084015160408401519061246d565b60011c91600a8560081c06156112c4575b611018606085015160608301519061246d565b60011c93600a86600c1c061561128c575b60149160808061103e9301519101519061246d565b60011c9460101c0615611254575b8485821161124d575b808311611246575b80841161123f575b85810361121a57505f945b61107988612215565b60085560405195611089876120ac565b60281b9460201b9360181b9260101b9160081b171717171781526020810160018152611123600660408401935f8552606081015f81526080820142815260a08301915f835260c08401975f895260e08501975f89528b5f52600960205260405f20955186555160018601555160028501555160038401555160048301555160058201550192511515839060ff801983541691151516179055565b51815461ff00191690151560081b61ff00161790556111428233612616565b335f52600b6020526111578260405f206124a3565b80611191575b506040519081527f6bd37887a7bbc7cd27359f9ef2972535249fc40f80e0cfbd6364bd77c757f33260203392a46001600755005b61119a83612514565b6111a385612514565b906001600160a01b0316806111fa575b506001600160a01b031690816111ca575b5061115d565b5f808093819360011c905af16111de6124e5565b50156111eb5783806111c4565b6312171d8360e31b5f5260045ffd5b5f808080938660011c905af161120e6124e5565b50156111eb57856111b3565b81810361122b575060025b94611070565b8203611238576001611225565b6003611225565b5082611065565b508161105d565b5080611055565b92603281018091116112785760ff811115611273575060ff5b9261104c565b61126d565b634e487b7160e01b5f52601160045260245ffd5b9360649060405160208101918883526040820152604081526112af6060826120f9565b51902006600181018091116112785793611029565b9160649060405160208101918783526040820152604081526112e76060826120f9565b51902006600181018091116112785791611005565b606490604051602081019186835260408201526040815261131e6060826120f9565b519020066001810180911115610fe157634e487b7160e01b5f52601160045260245ffd5b9260649060405160208101918583526040820152604081526113656060826120f9565b51902006600181018091116112785792610fbe565b635d8e28f960e01b5f5260045ffd5b6001915010158a610f16565b506001881015610f0c565b63d123d7ab60e01b5f5260045ffd5b63448e743360e01b5f5260045ffd5b634e57841160e11b5f5260045ffd5b63cd1c886760e01b5f5260045ffd5b6330cd747160e01b5f5260045ffd5b50336001600160a01b036113fe87612514565b161415610e8a565b63a22573d360e01b5f5260045ffd5b5060ff600684015416610e6a565b630a1684b160e21b5f5260045ffd5b50600482015415610e55565b34611466575f36600319011261146657600d546040516001600160a01b039091168152602090f35b5f80fd5b34611466575f3660031901126114665760206040516101f48152f35b34611466575f3660031901126114665761149e612556565b600680546001600160a01b031981169091555f906001600160a01b03167f8be0079c531659141344cd1fd0a4f28419497f9722a3daafe3b4186f6b6457e08280a3005b34611466576020366003190112611466576001600160a01b03611502612006565b16801561151f575f526003602052602060405f2054604051908152f35b6322718ad960e21b5f525f60045260245ffd5b34611466576020366003190112611466576020611550600435612514565b6040516001600160a01b039091168152f35b34611466576115703661207b565b9060018060a01b03600c5416331415806115e4575b806115cf575b6115c157805f526009602052600460405f20015415611423575f5260096020526115bd600260405f200191825461246d565b9055005b6282b42960e81b5f5260045ffd5b506006546001600160a01b031633141561158b565b50600d546001600160a01b0316331415611585565b346114665760403660031901126114665760043561161561206c565b600c546001600160a01b0316331415806116de575b6115c157815f526009602052600460405f2001541561142357815f52600960205261166781600660405f20019060ff801983541691151516179055565b156116a5576001600160a01b0361167d82612514565b16907f6df9cd7d0c4319a9afebdc6a4928da474558e8e7008bba09b229a28946f6449a5f80a3005b6001600160a01b036116b682612514565b16907f4a88fe2037e89043f7b320579ff1553066c449d096d5abfc1e6fb5247f342a815f80a3005b506006546001600160a01b031633141561162a565b34611466576020366003190112611466576001600160a01b03611714612006565b165f52600a602052602060ff60405f2054166040519015158152f35b34611466576020366003190112611466576001600160a01b03611751612006565b165f52600b60205260405f20604051806020835491828152019081935f5260205f20905f5b8181106117ce575050508161178c9103826120f9565b604051918291602083019060208452518091526040830191905f5b8181106117b5575050500390f35b82518452859450602093840193909201916001016117a7565b8254845260209093019260019283019201611776565b34611466575f36600319011261146657602060405167016345785d8a00008152f35b346114665760203660031901126114665760043560018060a01b03600c5416331415806119e6575b806119d1575b6115c157805f526009602052600460405f20015415611423576001600160a01b0361185e82612514565b165f52600b6020526118738160405f2061257d565b5f818152600960208181526040808420848155600181018590556002808201869055600382018690556004820186905560058201869055600690910185905582529092205491526001600160a01b03168015158061199b575b611981575b505f818152600260205260409020546001600160a01b0316801590811561194e575b5f83815260026020526040812080546001600160a01b03191690558390827fddf252ad1be2c89b69c2b068fc378daa952ba7f163c4a11628f55a4df523b3ef8280a45061193c57005b637e27328960e01b5f5260045260245ffd5b5f83815260046020526040902080546001600160a01b0319169055805f52600360205260405f205f1981540190556118f3565b5f52600b6020526119958160405f2061257d565b816118d1565b6118cc565b60405162461bcd60e51b815260206004820152600960248201526814dbdd5b189bdd5b9960ba1b6044820152606490fd5b506006546001600160a01b0316331415611834565b50600d546001600160a01b031633141561182e565b3461146657611a2a611a0c36612032565b9060405192611a1c6020856120f9565b5f8452610bb9838383612223565b005b3461146657611a2a611a3d36612032565b91612223565b3461146657602036600319011261146657611a5c612006565b611a64612556565b6001600160a01b03168015611a8a576001600160601b0360a01b600d541617600d555f80f35b63e6c4247b60e01b5f5260045ffd5b34611466576020366003190112611466576004355f52600960205260405f2060048101541561142357611ad26001825492015491612d88565b8051611ae4602083019182519061246d565b611af4604084019182519061246d565b91611b05606085019384519061246d565b9260a085015180155f14611b99575050505081519060148202918083046014149015171561127857611b3f6080916064600594049061246d565b920151046064018060641161127857611b57916121f5565b905f19810190811161127857600a810290808204600a1490151715611278576064018060641161127857611b90612710916020936121f5565b04604051908152f35b60018103611bcc57505050519060148202918083046014149015171561127857611b3f6080916064600594045b9061246d565b91925090600203611bfe5750519060148202918083046014149015171561127857611b3f608091606460059404611bc6565b516014808202939250811591840414171561127857611b3f608091606460059404611bc6565b3461146657602036600319011261146657611c3d612006565b611c45612556565b6001600160a01b03168015611a8a576001600160601b0360a01b600c541617600c555f80f35b3461146657602036600319011261146657600435611c87612536565b805f52600960205260405f206004810154156114235760ff60068201541661140657611cb282612514565b336001600160a01b03909116036113dc5760018101805490600a821015611d5157611cdc82612137565b92836064029360648504036112785760020192835492818410611d42577f095eab8023417eac323a61702814ed58d1f2e1d2a308f7bebb35a98fd84f38a194611d2a611d3193602096612208565b9055612215565b809155604051908152a26001600755005b63490cd80160e11b5f5260045ffd5b63103dac6f60e21b5f5260045ffd5b3461146657604036600319011261146657611d79612006565b602435611d8581612514565b33151580611e37575b80611e0a575b611df75781906001600160a01b0384811691167f8c5be1e5ebec7d5bd14f71427d1e84f3dd0314c0f7b2291e5b200ac8c7c3b9255f80a45f90815260046020526040902080546001600160a01b0319166001600160a01b03909216919091179055005b63a9fbf51f60e01b5f523360045260245ffd5b506001600160a01b0381165f90815260056020908152604080832033845290915290205460ff1615611d94565b506001600160a01b038116331415611d8e565b3461146657602036600319011261146657600435611e6781612514565b505f526004602052602060018060a01b0360405f205416604051908152f35b34611466575f366003190112611466576040515f5f548060011c90600181168015611f6d575b602083108114611f5957828552908115611f355750600114611ed9575b61095283610cc5818503826120f9565b5f8080527f290decd9548b62a8d60345a988386fc84ba6bc95484008f6362f93160ef3e563939250905b808210611f1b57509091508101602001610cc5611ec9565b919260018160209254838588010152019101909291611f03565b60ff191660208086019190915291151560051b84019091019150610cc59050611ec9565b634e487b7160e01b5f52602260045260245ffd5b91607f1691611eac565b34611466576020366003190112611466576004359063ffffffff60e01b8216809203611466576020916380ac58cd60e01b8114908115611fd1575b8115611fc0575b5015158152f35b6301ffc9a760e01b14905083611fb9565b635b5e139f60e01b81149150611fb2565b805180835260209291819084018484015e5f828201840152601f01601f1916010190565b600435906001600160a01b038216820361146657565b602435906001600160a01b038216820361146657565b6060906003190112611466576004356001600160a01b038116810361146657906024356001600160a01b0381168103611466579060443590565b60243590811515820361146657565b6040906003190112611466576004359060243590565b34611466575f366003190112611466576020604051600a8152f35b610100810190811067ffffffffffffffff8211176120c957604052565b634e487b7160e01b5f52604160045260245ffd5b60c0810190811067ffffffffffffffff8211176120c957604052565b90601f8019910116810190811067ffffffffffffffff8211176120c957604052565b67ffffffffffffffff81116120c957601f01601f191660200190565b5f9080156121ef5780806001146121e7576002146121e05760016101338210166001600b831016176121d2579060019060025b600181116121965750825f1904821161218257500290565b634e487b7160e01b81526011600452602490fd5b92805f190481116121be57600184166121b5575b80029260011c61216a565b809202916121aa565b634e487b7160e01b82526011600452602482fd5b6002900a9190806121825750565b5050600490565b505050600190565b50505f90565b8181029291811591840414171561127857565b9190820391821161127857565b5f1981146112785760010190565b6001600160a01b039091169190821561244a57815f52600260205260018060a01b0360405f205416825f52600960205260ff600660405f20015460081c1680612442575b80612439575b6119a0578015158061242f575b612415575b83036123fb575b5f828152600260205260409020546001600160a01b031692829033151580612366575b5084612333575b805f52600360205260405f2060018154019055815f52600260205260405f20816001600160601b0360a01b825416179055847fddf252ad1be2c89b69c2b068fc378daa952ba7f163c4a11628f55a4df523b3ef5f80a46001600160a01b031680830361231b57505050565b6364283d7b60e01b5f5260045260245260445260645ffd5b5f82815260046020526040902080546001600160a01b0319169055845f52600360205260405f205f1981540190556122b0565b909150806123aa575b1561237c5782905f6122a9565b828461239457637e27328960e01b5f5260045260245ffd5b63177e802f60e01b5f523360045260245260445ffd5b5033841480156123d9575b8061236f57505f838152600460205260409020546001600160a01b0316331461236f565b505f84815260056020908152604080832033845290915290205460ff166123b5565b825f52600b6020526124108260405f206124a3565b612286565b805f52600b60205261242a8360405f2061257d565b61227f565b508381141561227a565b5080151561226d565b506001612267565b633250574960e11b5f525f60045260245ffd5b9062093a80820180921161127857565b9190820180921161127857565b805482101561248f575f5260205f2001905f90565b634e487b7160e01b5f52603260045260245ffd5b90815491680100000000000000008310156120c957826124cb9160016124e39501815561247a565b90919082549060031b91821b915f19901b1916179055565b565b3d1561250f573d906124f68261211b565b9161250460405193846120f9565b82523d5f602084013e565b606090565b5f818152600260205260409020546001600160a01b031690811561193c575090565b600260075414612547576002600755565b633ee5aeb560e01b5f5260045ffd5b6006546001600160a01b0316330361256a57565b63118cdaa760e01b5f523360045260245ffd5b5f5b8154808210156126105783612594838561247a565b90549060031b1c146125a9575060010161257f565b9192505f198201918211611278576124cb6125c76125d5938561247a565b90549060031b1c918461247a565b805480156125fc575f1901906125eb828261247a565b8154905f199060031b1b1916905555565b634e487b7160e01b5f52603160045260245ffd5b50505050565b906020906040519061262883836120f9565b5f82526001600160a01b03841693841561244a57815f526002845260018060a01b0360405f205416825f526009855260ff600660405f20015460081c16806128ba575b806128b1575b6128805780151580612876575b61285d575b8503612844575b5f8281526002855260409020546001600160a01b03168015159081612813575b865f526003865260405f2060018154019055835f526002865260405f20876001600160601b0360a01b8254161790558387827fddf252ad1be2c89b69c2b068fc378daa952ba7f163c4a11628f55a4df523b3ef5f80a450612800573b6127105750505050565b9161274d91819495936040519384928392630a85bd0160e11b84523360048501525f60248501526044840152608060648401526084830190611fe2565b03815f885af15f91816127c0575b5061278957505061276a6124e5565b80519190826127865783633250574960e11b5f5260045260245ffd5b01fd5b909291506001600160e01b03191663757a42ff60e11b016127ae57505f808080612610565b633250574960e11b5f5260045260245ffd5b9091508381813d83116127f9575b6127d881836120f9565b8101031261146657516001600160e01b03198116810361146657905f61275b565b503d6127ce565b6339e3563760e11b5f525f60045260245ffd5b5f8481526004602052604080822080546001600160a01b031916905582825260038852902080545f190190556126aa565b845f52600b84526128588260405f206124a3565b61268a565b805f52600b85526128718360405f2061257d565b612683565b508581141561267e565b60405162461bcd60e51b815260048101869052600960248201526814dbdd5b189bdd5b9960ba1b6044820152606490fd5b50801515612671565b50600161266b565b600854906128cf82612215565b60085560405160208101904282524460408201523360601b60608201528360748201524260948201528360b482015260b4815261290d60d4826120f9565b519020906064820691600183018093116112785760648160081c0690600182018092116112785760648160101c0693600185018095116112785760648260181c06600181018091116112785786957fb3df73398e5523fb957f13593e6d55a0949e760dc0a5107ee1d2f08b76a9a05694606460409560201c06603c81105f14612ae45750603c935b81811180612adb575b15612a98575f5b60281b9460201b9360181b9260101b9160081b17171717179281516129c9816120ac565b84815285612a4c60066020840193600185528681015f8152606082015f8152608083019042825260a08401925f845260c08501985f8a5260e086019860018a525f5260096020528b5f20955186555160018601555160028501555160038401555160048301555160058201550192511515839060ff801983541691151516179055565b51815461ff00191690151560081b61ff0016179055612a6b8582612616565b60018060a01b031692835f52600b602052612a8885835f206124a3565b815190815260016020820152a390565b80821180612ad2575b15612aad5760026129a5565b80831180612ac9575b15612ac25760016129a5565b60036129a5565b50818311612ab6565b50828211612aa1565b5082811161299e565b6055811015612af7575060825b93612995565b605f811015612b08575060b4612af1565b60631115612b175760dc612af1565b60fa612af1565b823b612b2c575b5050505050565b604051630a85bd0160e11b81526001600160a01b039182166004820152918116602483015260448201939093526080606482015291169160209082908190612b78906084830190611fe2565b03815f865af15f9181612bd6575b50612bb45750612b946124e5565b80519081612baf5782633250574960e11b5f5260045260245ffd5b602001fd5b6001600160e01b03191663757a42ff60e11b016127ae57505f80808080612b25565b9091506020813d602011612c13575b81612bf2602093836120f9565b8101031261146657516001600160e01b03198116810361146657905f612b86565b3d9150612be5565b805f9172184f03e93ff9f4daa797ed6e38ed64bf6a1f0160401b821015612d65575b806d04ee2d6d415b85acef8100000000600a921015612d4a575b662386f26fc10000811015612d36575b6305f5e100811015612d25575b612710811015612d16575b6064811015612d08575b1015612cfd575b600a60216001840193612ca28561211b565b94612cb060405196876120f9565b808652612cbf601f199161211b565b013660208701378401015b5f1901916f181899199a1a9b1b9c1cb0b131b232b360811b8282061a8353048015612cf857600a9091612cca565b505090565b600190910190612c90565b606460029104930192612c89565b61271060049104930192612c7f565b6305f5e10060089104930192612c74565b662386f26fc1000060109104930192612c67565b6d04ee2d6d415b85acef810000000060209104930192612c57565b506040915072184f03e93ff9f4daa797ed6e38ed64bf6a1f0160401b8104612c3d565b5f60a0604051612d97816120dd565b828152826020820152826040820152826060820152826080820152015260ff60405191612dc3836120dd565b8181168352818160081c166020840152818160101c166040840152818160181c166060840152818160201c16608084015260281c1660a08201529056fea2646970667358221220f1d44b0aad0fdfe0a1c7c6bc153cb59e0f6fbb728a234719924dd1351529614264736f6c634300081e0033",
  "linkReferences": {},
  "deployedLinkReferences": {},
  "immutableReferences": {},
  "inputSourceName": "project/contracts/core/AntNFT.sol",
  "buildInfoId": "solc-0_8_30-b23bb9d1ff35eeb4a31edce2ecafe29603a98e35"
}