{
  "_format": "hh3-artifact-1",
  "contractName": "TournamentSystem",
  "sourceName": "contracts/core/TournamentSystem.sol",
  "abi": [
    {
      "inputs": [
        {
          "internalType": "address",
          "name": "antNFT_",
          "type": "address"
        },
        {
          "internalType": "address",
          "name": "hnyToken_",
          "type": "address"
        },
        {
          "internalType": "address",
          "name": "colonyManager_",
          "type": "address"
        }
      ],
      "stateMutability": "nonpayable",
      "type": "constructor"
    },
    {
      "inputs": [
        {
          "internalType": "address",
          "name": "owner",
          "type": "address"
        }
      ],
      "name": "OwnableInvalidOwner",
      "type": "error"
    },
    {
      "inputs": [
        {
          "internalType": "address",
          "name": "account",
          "type": "address"
        }
      ],
      "name": "OwnableUnauthorizedAccount",
      "type": "error"
    },
    {
      "inputs": [],
      "name": "ReentrancyGuardReentrantCall",
      "type": "error"
    },
    {
      "anonymous": false,
      "inputs": [
        {
          "indexed": true,
          "internalType": "address",
          "name": "previousOwner",
          "type": "address"
        },
        {
          "indexed": true,
          "internalType": "address",
          "name": "newOwner",
          "type": "address"
        }
      ],
      "name": "OwnershipTransferred",
      "type": "event"
    },
    {
      "anonymous": false,
      "inputs": [
        {
          "indexed": true,
          "internalType": "uint256",
          "name": "tournamentId",
          "type": "uint256"
        },
        {
          "indexed": true,
          "internalType": "uint256",
          "name": "battleId",
          "type": "uint256"
        },
        {
          "indexed": false,
          "internalType": "address",
          "name": "player1",
          "type": "address"
        },
        {
          "indexed": false,
          "internalType": "address",
          "name": "player2",
          "type": "address"
        }
      ],
      "name": "TournamentBattle",
      "type": "event"
    },
    {
      "anonymous": false,
      "inputs": [
        {
          "indexed": true,
          "internalType": "uint256",
          "name": "tournamentId",
          "type": "uint256"
        },
        {
          "indexed": true,
          "internalType": "uint256",
          "name": "battleId",
          "type": "uint256"
        },
        {
          "indexed": false,
          "internalType": "address",
          "name": "winner",
          "type": "address"
        }
      ],
      "name": "TournamentBattleResolved",
      "type": "event"
    },
    {
      "anonymous": false,
      "inputs": [
        {
          "indexed": true,
          "internalType": "uint256",
          "name": "tournamentId",
          "type": "uint256"
        },
        {
          "indexed": false,
          "internalType": "uint8",
          "name": "tournamentType",
          "type": "uint8"
        },
        {
          "indexed": false,
          "internalType": "uint8",
          "name": "tier",
          "type": "uint8"
        },
        {
          "indexed": false,
          "internalType": "uint256",
          "name": "startTime",
          "type": "uint256"
        }
      ],
      "name": "TournamentCreated",
      "type": "event"
    },
    {
      "anonymous": false,
      "inputs": [
        {
          "indexed": true,
          "internalType": "uint256",
          "name": "tournamentId",
          "type": "uint256"
        },
        {
          "indexed": false,
          "internalType": "address[]",
          "name": "winners",
          "type": "address[]"
        },
        {
          "indexed": false,
          "internalType": "uint256[]",
          "name": "prizes",
          "type": "uint256[]"
        }
      ],
      "name": "TournamentFinalized",
      "type": "event"
    },
    {
      "anonymous": false,
      "inputs": [
        {
          "indexed": true,
          "internalType": "address",
          "name": "player",
          "type": "address"
        },
        {
          "indexed": true,
          "internalType": "uint256",
          "name": "tournamentId",
          "type": "uint256"
        },
        {
          "indexed": false,
          "internalType": "uint256",
          "name": "amount",
          "type": "uint256"
        }
      ],
      "name": "TournamentPrizeClaimed",
      "type": "event"
    },
    {
      "anonymous": false,
      "inputs": [
        {
          "indexed": true,
          "internalType": "address",
          "name": "player",
          "type": "address"
        },
        {
          "indexed": true,
          "internalType": "uint256",
          "name": "tournamentId",
          "type": "uint256"
        },
        {
          "indexed": false,
          "internalType": "uint256[]",
          "name": "antIds",
          "type": "uint256[]"
        }
      ],
      "name": "TournamentRegistered",
      "type": "event"
    },
    {
      "inputs": [],
      "name": "TIER_BRONZE",
      "outputs": [
        {
          "internalType": "uint8",
          "name": "",
          "type": "uint8"
        }
      ],
      "stateMutability": "view",
      "type": "function"
    },
    {
      "inputs": [],
      "name": "TIER_CHAMPIONS",
      "outputs": [
        {
          "internalType": "uint8",
          "name": "",
          "type": "uint8"
        }
      ],
      "stateMutability": "view",
      "type": "function"
    },
    {
      "inputs": [],
      "name": "TIER_ELITE",
      "outputs": [
        {
          "internalType": "uint8",
          "name": "",
          "type": "uint8"
        }
      ],
      "stateMutability": "view",
      "type": "function"
    },
    {
      "inputs": [],
      "name": "TIER_GOLD",
      "outputs": [
        {
          "internalType": "uint8",
          "name": "",
          "type": "uint8"
        }
      ],
      "stateMutability": "view",
      "type": "function"
    },
    {
      "inputs": [],
      "name": "TIER_ROOKIE",
      "outputs": [
        {
          "internalType": "uint8",
          "name": "",
          "type": "uint8"
        }
      ],
      "stateMutability": "view",
      "type": "function"
    },
    {
      "inputs": [],
      "name": "TIER_SILVER",
      "outputs": [
        {
          "internalType": "uint8",
          "name": "",
          "type": "uint8"
        }
      ],
      "stateMutability": "view",
      "type": "function"
    },
    {
      "inputs": [],
      "name": "TIER_VETERAN",
      "outputs": [
        {
          "internalType": "uint8",
          "name": "",
          "type": "uint8"
        }
      ],
      "stateMutability": "view",
      "type": "function"
    },
    {
      "inputs": [],
      "name": "TOURNAMENT_DAILY",
      "outputs": [
        {
          "internalType": "uint8",
          "name": "",
          "type": "uint8"
        }
      ],
      "stateMutability": "view",
      "type": "function"
    },
    {
      "inputs": [],
      "name": "TOURNAMENT_WEEKLY",
      "outputs": [
        {
          "internalType": "uint8",
          "name": "",
          "type": "uint8"
        }
      ],
      "stateMutability": "view",
      "type": "function"
    },
    {
      "inputs": [],
      "name": "antNFT",
      "outputs": [
        {
          "internalType": "contract IAntNFT",
          "name": "",
          "type": "address"
        }
      ],
      "stateMutability": "view",
      "type": "function"
    },
    {
      "inputs": [],
      "name": "colonyManager",
      "outputs": [
        {
          "internalType": "contract IColonyManager",
          "name": "",
          "type": "address"
        }
      ],
      "stateMutability": "view",
      "type": "function"
    },
    {
      "inputs": [
        {
          "internalType": "uint8",
          "name": "tournamentType",
          "type": "uint8"
        },
        {
          "internalType": "uint8",
          "name": "tier",
          "type": "uint8"
        },
        {
          "internalType": "uint256",
          "name": "startTime",
          "type": "uint256"
        },
        {
          "internalType": "uint256",
          "name": "duration",
          "type": "uint256"
        }
      ],
      "name": "createTournament",
      "outputs": [],
      "stateMutability": "nonpayable",
      "type": "function"
    },
    {
      "inputs": [
        {
          "internalType": "uint8",
          "name": "",
          "type": "uint8"
        }
      ],
      "name": "dailyEntryFees",
      "outputs": [
        {
          "internalType": "uint256",
          "name": "",
          "type": "uint256"
        }
      ],
      "stateMutability": "view",
      "type": "function"
    },
    {
      "inputs": [
        {
          "internalType": "uint8",
          "name": "",
          "type": "uint8"
        }
      ],
      "name": "dailyHNYRewards",
      "outputs": [
        {
          "internalType": "uint256",
          "name": "",
          "type": "uint256"
        }
      ],
      "stateMutability": "view",
      "type": "function"
    },
    {
      "inputs": [
        {
          "internalType": "uint8",
          "name": "",
          "type": "uint8"
        }
      ],
      "name": "dailyMaxPlayers",
      "outputs": [
        {
          "internalType": "uint256",
          "name": "",
          "type": "uint256"
        }
      ],
      "stateMutability": "view",
      "type": "function"
    },
    {
      "inputs": [
        {
          "internalType": "uint256",
          "name": "tournamentId",
          "type": "uint256"
        }
      ],
      "name": "finalizeTournament",
      "outputs": [],
      "stateMutability": "nonpayable",
      "type": "function"
    },
    {
      "inputs": [
        {
          "internalType": "address",
          "name": "player",
          "type": "address"
        }
      ],
      "name": "getPlayerTournaments",
      "outputs": [
        {
          "internalType": "uint256[]",
          "name": "",
          "type": "uint256[]"
        }
      ],
      "stateMutability": "view",
      "type": "function"
    },
    {
      "inputs": [
        {
          "internalType": "uint256",
          "name": "tournamentId",
          "type": "uint256"
        }
      ],
      "name": "getTournamentDetails",
      "outputs": [
        {
          "internalType": "uint8",
          "name": "tournamentType",
          "type": "uint8"
        },
        {
          "internalType": "uint8",
          "name": "tier",
          "type": "uint8"
        },
        {
          "internalType": "uint256",
          "name": "startTime",
          "type": "uint256"
        },
        {
          "internalType": "uint256",
          "name": "endTime",
          "type": "uint256"
        },
        {
          "internalType": "uint256",
          "name": "entryFee",
          "type": "uint256"
        },
        {
          "internalType": "uint256",
          "name": "maxPlayers",
          "type": "uint256"
        },
        {
          "internalType": "uint256",
          "name": "registeredCount",
          "type": "uint256"
        },
        {
          "internalType": "bool",
          "name": "finalized",
          "type": "bool"
        }
      ],
      "stateMutability": "view",
      "type": "function"
    },
    {
      "inputs": [],
      "name": "hnyToken",
      "outputs": [
        {
          "internalType": "contract HoneyDewToken",
          "name": "",
          "type": "address"
        }
      ],
      "stateMutability": "view",
      "type": "function"
    },
    {
      "inputs": [
        {
          "internalType": "uint256",
          "name": "",
          "type": "uint256"
        },
        {
          "internalType": "address",
          "name": "",
          "type": "address"
        }
      ],
      "name": "isRegistered",
      "outputs": [
        {
          "internalType": "bool",
          "name": "",
          "type": "bool"
        }
      ],
      "stateMutability": "view",
      "type": "function"
    },
    {
      "inputs": [
        {
          "internalType": "address",
          "name": "",
          "type": "address"
        },
        {
          "internalType": "uint8",
          "name": "",
          "type": "uint8"
        }
      ],
      "name": "lastTournamentEntry",
      "outputs": [
        {
          "internalType": "uint256",
          "name": "",
          "type": "uint256"
        }
      ],
      "stateMutability": "view",
      "type": "function"
    },
    {
      "inputs": [],
      "name": "owner",
      "outputs": [
        {
          "internalType": "address",
          "name": "",
          "type": "address"
        }
      ],
      "stateMutability": "view",
      "type": "function"
    },
    {
      "inputs": [
        {
          "internalType": "uint256",
          "name": "",
          "type": "uint256"
        },
        {
          "internalType": "address",
          "name": "",
          "type": "address"
        },
        {
          "internalType": "uint256",
          "name": "",
          "type": "uint256"
        }
      ],
      "name": "playerAnts",
      "outputs": [
        {
          "internalType": "uint256",
          "name": "",
          "type": "uint256"
        }
      ],
      "stateMutability": "view",
      "type": "function"
    },
    {
      "inputs": [
        {
          "internalType": "uint256",
          "name": "",
          "type": "uint256"
        }
      ],
      "name": "prizeDistribution",
      "outputs": [
        {
          "internalType": "uint256",
          "name": "",
          "type": "uint256"
        }
      ],
      "stateMutability": "view",
      "type": "function"
    },
    {
      "inputs": [
        {
          "internalType": "uint256",
          "name": "tournamentId",
          "type": "uint256"
        },
        {
          "internalType": "uint256[]",
          "name": "antIds",
          "type": "uint256[]"
        }
      ],
      "name": "registerForTournament",
      "outputs": [],
      "stateMutability": "payable",
      "type": "function"
    },
    {
      "inputs": [],
      "name": "renounceOwnership",
      "outputs": [],
      "stateMutability": "nonpayable",
      "type": "function"
    },
    {
      "inputs": [
        {
          "internalType": "uint256",
          "name": "tournamentId",
          "type": "uint256"
        },
        {
          "internalType": "uint256",
          "name": "battleIndex",
          "type": "uint256"
        }
      ],
      "name": "resolveBattle",
      "outputs": [],
      "stateMutability": "nonpayable",
      "type": "function"
    },
    {
      "inputs": [
        {
          "internalType": "uint8",
          "name": "tier",
          "type": "uint8"
        },
        {
          "internalType": "uint256",
          "name": "fee",
          "type": "uint256"
        }
      ],
      "name": "setDailyEntryFee",
      "outputs": [],
      "stateMutability": "nonpayable",
      "type": "function"
    },
    {
      "inputs": [
        {
          "internalType": "uint8",
          "name": "tier",
          "type": "uint8"
        },
        {
          "internalType": "uint256",
          "name": "reward",
          "type": "uint256"
        }
      ],
      "name": "setDailyHNYReward",
      "outputs": [],
      "stateMutability": "nonpayable",
      "type": "function"
    },
    {
      "inputs": [
        {
          "internalType": "uint8",
          "name": "tournamentType",
          "type": "uint8"
        },
        {
          "internalType": "uint8",
          "name": "tier",
          "type": "uint8"
        },
        {
          "internalType": "uint256",
          "name": "max",
          "type": "uint256"
        }
      ],
      "name": "setMaxPlayers",
      "outputs": [],
      "stateMutability": "nonpayable",
      "type": "function"
    },
    {
      "inputs": [
        {
          "internalType": "uint8",
          "name": "tier",
          "type": "uint8"
        },
        {
          "internalType": "uint256",
          "name": "fee",
          "type": "uint256"
        }
      ],
      "name": "setWeeklyEntryFee",
      "outputs": [],
      "stateMutability": "nonpayable",
      "type": "function"
    },
    {
      "inputs": [
        {
          "internalType": "uint8",
          "name": "tier",
          "type": "uint8"
        },
        {
          "internalType": "uint256",
          "name": "reward",
          "type": "uint256"
        }
      ],
      "name": "setWeeklyHNYReward",
      "outputs": [],
      "stateMutability": "nonpayable",
      "type": "function"
    },
    {
      "inputs": [
        {
          "internalType": "uint256",
          "name": "tournamentId",
          "type": "uint256"
        }
      ],
      "name": "startTournament",
      "outputs": [],
      "stateMutability": "nonpayable",
      "type": "function"
    },
    {
      "inputs": [
        {
          "internalType": "address",
          "name": "",
          "type": "address"
        }
      ],
      "name": "totalEarnings",
      "outputs": [
        {
          "internalType": "uint256",
          "name": "",
          "type": "uint256"
        }
      ],
      "stateMutability": "view",
      "type": "function"
    },
    {
      "inputs": [
        {
          "internalType": "uint256",
          "name": "",
          "type": "uint256"
        },
        {
          "internalType": "uint256",
          "name": "",
          "type": "uint256"
        }
      ],
      "name": "tournamentBattles",
      "outputs": [
        {
          "internalType": "uint256",
          "name": "id",
          "type": "uint256"
        },
        {
          "internalType": "uint256",
          "name": "tournamentId",
          "type": "uint256"
        },
        {
          "internalType": "address",
          "name": "player1",
          "type": "address"
        },
        {
          "internalType": "address",
          "name": "player2",
          "type": "address"
        },
        {
          "internalType": "address",
          "name": "winner",
          "type": "address"
        },
        {
          "internalType": "bool",
          "name": "resolved",
          "type": "bool"
        }
      ],
      "stateMutability": "view",
      "type": "function"
    },
    {
      "inputs": [
        {
          "internalType": "uint256",
          "name": "",
          "type": "uint256"
        },
        {
          "internalType": "uint256",
          "name": "",
          "type": "uint256"
        }
      ],
      "name": "tournamentRegistrations",
      "outputs": [
        {
          "internalType": "address",
          "name": "player",
          "type": "address"
        },
        {
          "internalType": "uint256",
          "name": "registrationTime",
          "type": "uint256"
        }
      ],
      "stateMutability": "view",
      "type": "function"
    },
    {
      "inputs": [
        {
          "internalType": "address",
          "name": "",
          "type": "address"
        }
      ],
      "name": "tournamentWins",
      "outputs": [
        {
          "internalType": "uint256",
          "name": "",
          "type": "uint256"
        }
      ],
      "stateMutability": "view",
      "type": "function"
    },
    {
      "inputs": [
        {
          "internalType": "uint256",
          "name": "",
          "type": "uint256"
        }
      ],
      "name": "tournaments",
      "outputs": [
        {
          "internalType": "uint256",
          "name": "id",
          "type": "uint256"
        },
        {
          "internalType": "uint8",
          "name": "tournamentType",
          "type": "uint8"
        },
        {
          "internalType": "uint8",
          "name": "tier",
          "type": "uint8"
        },
        {
          "internalType": "uint256",
          "name": "startTime",
          "type": "uint256"
        },
        {
          "internalType": "uint256",
          "name": "endTime",
          "type": "uint256"
        },
        {
          "internalType": "uint256",
          "name": "entryFee",
          "type": "uint256"
        },
        {
          "internalType": "uint256",
          "name": "hnyReward",
          "type": "uint256"
        },
        {
          "internalType": "uint256",
          "name": "maxPlayers",
          "type": "uint256"
        },
        {
          "internalType": "uint256",
          "name": "registeredCount",
          "type": "uint256"
        },
        {
          "internalType": "bool",
          "name": "finalized",
          "type": "bool"
        }
      ],
      "stateMutability": "view",
      "type": "function"
    },
    {
      "inputs": [
        {
          "internalType": "address",
          "name": "newOwner",
          "type": "address"
        }
      ],
      "name": "transferOwnership",
      "outputs": [],
      "stateMutability": "nonpayable",
      "type": "function"
    },
    {
      "inputs": [
        {
          "internalType": "uint8",
          "name": "",
          "type": "uint8"
        }
      ],
      "name": "weeklyEntryFees",
      "outputs": [
        {
          "internalType": "uint256",
          "name": "",
          "type": "uint256"
        }
      ],
      "stateMutability": "view",
      "type": "function"
    },
    {
      "inputs": [
        {
          "internalType": "uint8",
          "name": "",
          "type": "uint8"
        }
      ],
      "name": "weeklyHNYRewards",
      "outputs": [
        {
          "internalType": "uint256",
          "name": "",
          "type": "uint256"
        }
      ],
      "stateMutability": "view",
      "type": "function"
    },
    {
      "inputs": [
        {
          "internalType": "uint8",
          "name": "",
          "type": "uint8"
        }
      ],
      "name": "weeklyMaxPlayers",
      "outputs": [
        {
          "internalType": "uint256",
          "name": "",
          "type": "uint256"
        }
      ],
      "stateMutability": "view",
      "type": "function"
    },
    {
      "stateMutability": "payable",
      "type": "receive"
    }
  ],
  "bytecode": "0x6080604052346105a757604051601f612d6b38819003918201601f19168301916001600160401b03831184841017610580578084926060946040528339810103126105a75761004d816105ab565b90610066604061005f602084016105ab565b92016105ab565b913315610594575f8054336001600160a01b0319821681178355916001600160a01b03909116907f8be0079c531659141344cd1fd0a4f28419497f9722a3daafe3b4186f6b6457e09080a36001805560405161016081016001600160401b0381118282101761058057604052610dac81526107d060208201526103e860408201526103e860608201526101f460808201526101f460a08201526101f460c082015260fa60e082015260fa61010082015260fa61012082015260fa610140820152600854600b60085580600b10610520575b5060085f5260205f20905f5b600b811061050857505060016009819055600a5550601380546001600160a01b03199081166001600160a01b03938416179091556014805482169383169390931790925560158054909216921691909117905567016345785d8a00007fac33ff75c19e70fe83507db0d683fd3465c996598dc972688b7ace676c89077b556702c68af0bb1400007fe90b7bceb6e7df5418fb78d8ee546e97c83a08bbccc01a0644d599ccd2a7c2e0556706f05b59d3b200007f679795a0195a1b76cdebb7c51d74e058aee92919b8c3389af86ef24535e8a28c8190557fcbc4e5fb02c3d1de23a9f1e014b4d2ee5aeaea9505df5e855c9210bf472495af55670de0b6b3a76400007f83ec6a1f0257b830b5e016457c9cf1435391bf56cc98f369a58a54fe9377246555671bc16d674ec800007f405aad32e1adbac89bb7f176e338b8fc6e994ca210c9bb7bdca249b46594225055674563918244f400007fc69056f16cbaa3c616b828e333ab7d3a32310765507f8f58359e99ebb7a885f35568056bc75e2d631000007f17ef568e3e12ab5b9c7254a8d58478811de00f9e6eb34345acd53bf8fd09d3ec55680ad78ebc5ac62000007fabd6e7cb50984ff9c2f3e18a2660c3353dadf4e3291deeb275dae2cd1e44fe0555681043561a88293000007f91da3fd0782e51c6b3986e9e672fd566868e71f3dbc2d6c2cd6fbb3e361af2a7556815af1d78b58c4000007fa9bc9a3a348c357ba16b37005d7e6b3236198c0e939f4af8c5f19b8deeb8ebc055681b1ae4d6e2ef5000007f3eec716f11ba9e820c81ca75eb978ffb45831ef8b7a53e5e422c26008e1ca6d555682086ac3510526000007f458b30c2d72bfd2c6317304a4594ecbafe5f729d3111b65fdc3a33bd48e5432d556825f273933db57000007f069400f22b28c6c362558d92f66163cec5671cba50b61abd2eecfcd0eaeac5185560c87f54cdd369e4e8a8515e52ca72ec816c2101831ad1f18bf44102ed171459c9b4f85560647f3e5fec24aa4dc4e5aee2e025e51e1392c72a2500577559fae9665c6d52bd6a3181905560327f8819ef417987f8ae7a81f42cdfb18815282fe989326fbff903d13cf0e03ace2981905560076020526101f47f3be6fd20d5acfde5b873b48692cd31f4d3c7e8ee8a813af4696af8859e5ca6c65560fa7fb805995a7ec585a251200611a61d179cfd7fb105e1ab17dc415a7336783786f7557fbcdda56b5d08466ec462cbbe0adfa57cb0a15fcc8940ef68f702f21b787bc9359190915560065f527f55c5b153ab560fcde54a63b18c7f53d75501706907cef8767fbded79ab9997c7556040516127ab90816105c08239f35b600190602061ffff8451169301928185015501610143565b60085f527ff3f7a9fe364faab93b216da50a3214154f22a0a2b415b23a84c8169e8b636ee3017ff3f7a9fe364faab93b216da50a3214154f22a0a2b415b23a84c8169e8b636eee5b8181106105755750610137565b5f8155600101610568565b634e487b7160e01b5f52604160045260245ffd5b631e4fbdf760e01b5f525f60045260245ffd5b5f80fd5b51906001600160a01b03821682036105a75756fe6080604052600436101561001a575b3615610018575f80fd5b005b5f5f3560e01c806305e01d89146123765780630ccea64c146123245780630da38fbc146122ed57806317b747d6146122145780631ba619a414611d275780631d56aa0f14611cf5578063216655e214611c665780632d368e5f14611c2f5780632dc6206c14611ba157806338d3647014611b6f5780633c0847f514611b53578063516205031461193757806351fe1fe2146118de57806354c237b7146118a457806355b606c01461186d5780635731085014610aa357806357ef3bc814611836578063651ea943146112e757806366c47a4d146112b5578063715018a61461125b5780637503e1b7146111c55780637771a9ca146111a957806385117005146111705780638c230260146111475780638da5cb5b14611120578063920fc78714610c055780639a46e41214610be9578063a48f13a014610b9b578063b4c6d9b414610b69578063b5a1ea5014610b13578063b5fa964214610b0e578063b81f6e1814610ac4578063ba328c4314610aa8578063bee2379d14610aa3578063c57a32e214610a7a578063cc014fa614610a41578063ccda9c1f14610a0f578063d1c59eec146109dd578063dafb8c9d146102c0578063e3d3f843146102a4578063f2fde38b1461021e5763f54e6f63146101f3575061000e565b3461021b578060031936011261021b576013546040516001600160a01b039091168152602090f35b80fd5b503461021b57602036600319011261021b576102386123a7565b6102406126bf565b6001600160a01b031680156102905781546001600160a01b03198116821783556001600160a01b03167f8be0079c531659141344cd1fd0a4f28419497f9722a3daafe3b4186f6b6457e08380a380f35b631e4fbdf760e01b82526004829052602482fd5b503461021b578060031936011261021b57602060405160058152f35b50604036600319011261021b5760043560243567ffffffffffffffff81116109d957366023820112156109d957806004013567ffffffffffffffff81116109d557602482019060248160051b809401013681116109d15761031f6126e5565b848652600b6020526040862061033781541515612562565b600281015442101561099657600781019182546006830154111561095f576005840361091a576004820192835434106108dc57878952600d60209081526040808b20335f908152925290205460ff166108a2573389526010602052600160408a2093019260ff80855460081c16165f5260205260405f205461a8c0810180911161088e574210610853576013546001600160a01b0316895b86811061067f575050878952600d60209081526040808b20335f818152918452828220805460ff191660011790558b8d52600e8452828d209082529092529020610419868261266f565b895260208920868a5b87811061066b575050506104368154612554565b9055868852600c60205260408820604051916060830183811067ffffffffffffffff8211176106575760405233835261046e866124f6565b9061047c60405192836124c0565b86825287602083015b82821061064757505050602083019081526040830191428352805490600160401b82101561061f57906104bd91600182018155612480565b939093610633575183546001600160a01b0319166001600160a01b039190911617835551805190600184019067ffffffffffffffff831161061f57906020839261050c8e99989796958461266f565b0190875260208720875b838110610608575050505060029051910155338352601060205260ff8060408520925460081c16165f5260205260405f20429055548034116105ae575b505060405160208082528101829052906001600160fb1b03106105aa57827f46cfad63de38d7bd8f89f36a56040bcc91fdcb91d59abd7a02885f2b28b1979392604083013760408133948101030190a36001805580f35b8480fd5b81806105bb8193346124b3565b335af16105c66125c1565b50156105d357845f610553565b60405162461bcd60e51b815260206004820152600d60248201526c1499599d5b990819985a5b1959609a1b6044820152606490fd5b8251818301558d9850602090920191600101610516565b634e487b7160e01b8c52604160045260248cfd5b634e487b7160e01b8b5260048b905260248bfd5b8135815260209182019101610485565b634e487b7160e01b8b52604160045260248bfd5b600190602083359301928185015501610422565b61068a81888a6126af565b6040516331a9108f60e11b815290356004820152602081602481865afa9081156107cb578c9161080e575b50336001600160a01b03909116036107d6576106d281888a6126af565b604051635d528fc360e11b815290356004820152602081602481865afa9081156107cb578c9161079d575b50610768576107178a610711838a8c6126af565b35612705565b610723576001016103cf565b60405162461bcd60e51b815260206004820152601960248201527f416e7420616c726561647920696e20746f75726e616d656e74000000000000006044820152606490fd5b60405162461bcd60e51b815260206004820152600d60248201526c105b9d081a5cc81cdd185ad959609a1b6044820152606490fd5b6107be915060203d81116107c4575b6107b681836124c0565b810190612600565b5f6106fd565b503d6107ac565b6040513d8e823e3d90fd5b60405162461bcd60e51b815260206004820152601060248201526f139bdd081bdddb995c881bd988185b9d60821b6044820152606490fd5b90506020813d821161084b575b81610828602093836124c0565b8101031261084757516001600160a01b0381168103610847575f6106b5565b8b80fd5b3d915061081b565b60405162461bcd60e51b81526020600482015260136024820152722a37bab93730b6b2b73a1031b7b7b63237bbb760691b6044820152606490fd5b634e487b7160e01b8a52601160045260248afd5b60405162461bcd60e51b8152602060048201526012602482015271105b1c9958591e481c9959da5cdd195c995960721b6044820152606490fd5b60405162461bcd60e51b8152602060048201526016602482015275496e73756666696369656e7420656e7472792066656560501b6044820152606490fd5b60405162461bcd60e51b815260206004820152601c60248201527f4d7573742072656769737465722065786163746c79203520616e7473000000006044820152606490fd5b60405162461bcd60e51b815260206004820152600f60248201526e151bdd5c9b985b595b9d08199d5b1b608a1b6044820152606490fd5b60405162461bcd60e51b8152602060048201526013602482015272149959da5cdd1c985d1a5bdb8818db1bdcd959606a1b6044820152606490fd5b8580fd5b8380fd5b8280fd5b503461021b57602036600319011261021b57604060209160ff6109fe6123fe565b168152600683522054604051908152f35b503461021b57602036600319011261021b57604060209160ff610a306123fe565b168152600783522054604051908152f35b503461021b57602036600319011261021b576020906040906001600160a01b03610a696123a7565b168152601183522054604051908152f35b503461021b578060031936011261021b576014546040516001600160a01b039091168152602090f35b612499565b503461021b578060031936011261021b57602060405160068152f35b503461021b57604036600319011261021b576040610ae0612391565b916004358152600d602052209060018060a01b03165f52602052602060ff60405f2054166040519015158152f35b612376565b503461021b57606036600319011261021b57610b2d6123fe565b60ff610b3761240e565b8160443593610b446126bf565b16610b59571682526006602052604082205580f35b1682526007602052604082205580f35b503461021b57602036600319011261021b57604060209160ff610b8a6123fe565b168152600583522054604051908152f35b503461021b57604036600319011261021b5760ff6040610bb96123a7565b92610bc261240e565b9360018060a01b0316815260106020522091165f52602052602060405f2054604051908152f35b503461021b578060031936011261021b57602060405160048152f35b503461021b57610c1436612451565b610c1c6126e5565b818352600f60205260408320548110156110e357610c4590828452600f60205260408420612467565b50906006820160ff815460a01c1661109e576002830180546001600160a01b03169081151580611088575b1561105257859086928792600488019485549460018060a01b0360135416955b808210610fc25750508960058a01958654905b818310610f2b57505050606489546040516020810191428352604082015260408152610cd06060826124c0565b5190200691600a83066064019081606411610f1757606491610cf1916125ae565b049060328301808411610f1757600a90066064019081606411610f1757606491610d1a916125ae565b0480821115610eae575050825486546001600160a01b0319166001600160a01b039190911617865550505b835460ff60a01b198116600160a01b17855590546001600160a01b03918216911603610ea457509084925b60405192836020825491828152019186526020862090865b818110610e8b5750505083610d9e9103846124c0565b835b8351811015610e29576013546001600160a01b0316610dbf8286612540565b51813b15610e25578691604483926040519485938492630ba4818b60e31b84526004840152600a60248401525af1908115610e1a578691610e05575b5050600101610da0565b81610e0f916124c0565b6105aa57845f610dfb565b6040513d88823e3d90fd5b8680fd5b8483837fb15f265c239841b1cf08a401e6511218995bad3186abafd37b5eac32fbf5305a60208a60018060a01b0385541686526011825260408620610e6e8154612554565b90555493546040516001600160a01b039091168152a36001805580f35b8254845289975060209093019260019283019201610d88565b9050908492610d70565b1115610edb575050600386015484546001600160a01b0319166001600160a01b0391909116178455610d45565b600116610f03575b84546001600160a01b0319166001600160a01b0391909116178455610d45565b5060038601546001600160a01b0316610ee3565b634e487b7160e01b8c52601160045260248cfd5b9091928c610f39858a6123e9565b9054604051630cd3193360e11b815260039290921b1c6004820152602081602481875afa918215610fb65791610f80575b50610f7790600192612618565b93019190610ca3565b90506020813d8211610fae575b81610f9a602093836124c0565b81010312610faa57516001610f6a565b5f80fd5b3d9150610f8d565b604051903d90823e3d90fd5b9092610fce84896123e9565b9054604051630cd3193360e11b815260039290921b1c60048201526020816024818b5afa908115611047578d91611015575b5061100d90600192612618565b930190610c90565b90506020813d821161103f575b8161102f602093836124c0565b81010312610faa57516001611000565b3d9150611022565b6040513d8f823e3d90fd5b60405162461bcd60e51b815260206004820152600e60248201526d496e76616c696420626174746c6560901b6044820152606490fd5b5060038501546001600160a01b03161515610c70565b60405162461bcd60e51b815260206004820152601760248201527f426174746c6520616c7265616479207265736f6c7665640000000000000000006044820152606490fd5b60405162461bcd60e51b815260206004820152601560248201527410985d1d1b1948191bd95cc81b9bdd08195e1a5cdd605a1b6044820152606490fd5b503461021b578060031936011261021b57546040516001600160a01b039091168152602090f35b503461021b578060031936011261021b576015546040516001600160a01b039091168152602090f35b503461021b57602036600319011261021b576020906040906001600160a01b036111986123a7565b168152601283522054604051908152f35b503461021b578060031936011261021b57602060405160028152f35b503461021b57602036600319011261021b576040610140916004358152600b6020522080549060018101549060028101546003820154600483015460058401549160068501549360ff80600860078901549801541697604051998a5281811660208b015260081c1660408901526060880152608087015260a086015260c085015260e08401526101008301521515610120820152f35b503461021b578060031936011261021b576112746126bf565b80546001600160a01b03198116825581906001600160a01b03167f8be0079c531659141344cd1fd0a4f28419497f9722a3daafe3b4186f6b6457e08280a380f35b503461021b57602036600319011261021b57604060209160ff6112d66123fe565b168152600283522054604051908152f35b503461021b57602036600319011261021b57600435906113056126bf565b818152600b6020526040812061131d81541515612562565b600281015442106117f85760070154156117c157818152600f602052604081205461177c57818152600c602052611357604082205461250e565b815b838352600c60205260408320548110156113a057600190848452600c6020526113858160408620612480565b50828060a01b039054166113998285612540565b5201611359565b5080515b600181116116ce5750815b81518110156116ca57600181018082116116b657825181106113ee575b5060028101809111156113af575b634e487b7160e01b83526011600452602483fd5b600a54906113fb82612554565b600a556001600160a01b036114108486612540565b51166001600160a01b036114248387612540565b51888852600e602052604088209116906001600160a01b036114468789612540565b511660018060a01b03165f5260205260405f2090888852600e6020526040882060018060a01b03611477868a612540565b511660018060a01b03165f5260205260405f209060405191610100830183811067ffffffffffffffff821117610657576040528683526114db6114ce60208501958d87526040860197885260608601948552612625565b9160808501928352612625565b9160a0840192835260c08401958b875260e08501958c87528d8d52600f60205260408d20805490600160401b8210156116a2579061151e91600182018155612467565b96909661168e57518655516001860155516002850180546001600160a01b03199081166001600160a01b03938416179091559151600386018054909316911617905551805190600484019067ffffffffffffffff831161061f57602090611585848461266f565b01908b5260208b208b5b83811061167a57505050506005820190519081519167ffffffffffffffff8311610657576020906115c0848461266f565b01908a5260208a208a5b83811061166657505093516006909201805493516001600160a81b03199094166001600160a01b039384161793151560a01b60ff60a01b169390931790925588937f4295c7cfd08433895c6fa4a6dbb333f25fc38d68dd246913c9af9c0718fa8d369350604092509061163d8789612540565b5116906001600160a01b03906116539089612540565b511682519182526020820152a35f6113cc565b8251818301556020909201916001016115ca565b82518183015560209092019160010161158f565b634e487b7160e01b8e5260048e905260248efd5b634e487b7160e01b8f52604160045260248ffd5b634e487b7160e01b84526011600452602484fd5b8280f35b6040516020810190428252826040820152604081526116ee6060826124c0565b5190208115611768578190066001600160a01b0361170c8285612540565b5116905f1983019083821161175457611745919061173e6001600160a01b036117358489612540565b51169187612540565b5284612540565b5280156113da575f19016113a4565b634e487b7160e01b86526011600452602486fd5b634e487b7160e01b84526012600452602484fd5b60405162461bcd60e51b815260206004820152601a60248201527f546f75726e616d656e7420616c726561647920737461727465640000000000006044820152606490fd5b60405162461bcd60e51b815260206004820152600f60248201526e4e6f207061727469636970616e747360881b6044820152606490fd5b60405162461bcd60e51b8152602060048201526016602482015275151bdd5c9b985b595b9d081b9bdd081cdd185c9d195960521b6044820152606490fd5b503461021b57604036600319011261021b5760ff6118526123fe565b61185a6126bf565b1681526003602052602435604082205580f35b503461021b57604036600319011261021b5760ff6118896123fe565b6118916126bf565b1681526004602052602435604082205580f35b503461021b57602036600319011261021b576004359060085482101561021b5760206118cf836123bd565b90549060031b1c604051908152f35b503461021b576118ed36612451565b908252600c6020526040822080548210156109d95761190c9250612480565b508054600290910154604080516001600160a01b0390931683526020830191909152819081015b0390f35b503461021b57608036600319011261021b576119516123fe565b61195961240e565b6044359160ff6064359161196b6126bf565b16801593848015611b49575b15611b155742811115611ad0578215611a8b577fd6e654d589be395fc046511bfc4531ede6114c24b8c8bcbc0036ea0fe44cd60393606093600954966119bc88612554565b600955878952600b6020526119fb60408a20928984556001840180548861ff0060ff89169860081b169161ffff19161717905585600285015585612618565b600383015515611a50578188526002602052604088205460048201558188526004602052604088205460058201558188526006602052600660408920549101555b60405192835260208301526040820152a280f35b818852600360205260408820546004820155818852600560205260408820546005820155818852600760205260066040892054910155611a3c565b60405162461bcd60e51b815260206004820152601960248201527f4475726174696f6e206d75737420626520706f736974697665000000000000006044820152606490fd5b60405162461bcd60e51b815260206004820152601c60248201527f53746172742074696d65206d75737420626520696e20667574757265000000006044820152606490fd5b60405162461bcd60e51b815260206004820152600c60248201526b496e76616c6964207479706560a01b6044820152606490fd5b5060018214611977565b503461021b578060031936011261021b57602060405160038152f35b503461021b57602036600319011261021b57604060209160ff611b906123fe565b168152600383522054604051908152f35b503461021b57611bb036612451565b91908152600f6020526040812090815483101561021b5760c0611bd38484612467565b5060ff81549160018101549060018060a01b03600282015416600660018060a01b036003840154169201549260405195865260208601526040850152606084015260018060a01b038116608084015260a01c16151560a0820152f35b503461021b57604036600319011261021b5760ff611c4b6123fe565b611c536126bf565b1681526005602052602435604082205580f35b503461021b57602036600319011261021b576040610100916004358152600b60205220611c9581541515612562565b6001810154906002810154906003810154600482015460068301549160ff60086007860154950154169460ff60405197818116895260081c16602088015260408701526060860152608085015260a084015260c0830152151560e0820152f35b503461021b57602036600319011261021b57604060209160ff611d166123fe565b168152600483522054604051908152f35b5034610faa576020366003190112610faa57600435611d446126bf565b611d4c6126e5565b805f52600b60205260405f20611d6481541515612562565b600381015442106121d857600881019160ff83541661219f57600482015492611d9360078401948554906125ae565b600184015460ff1661217d576014810281810460141482151715612169576005916064611dc19204906124b3565b930193845480612101575b50611dd7905461250e565b92855b838752600c6020526040872054811015611e2157600190848852600c602052611e068160408a20612480565b50828060a01b03905416611e1a8288612540565b5201611dda565b509093929192611e31835161250e565b91865b84518110806120f6575b1561206357612710611e5f611e52836123bd565b90549060031b1c846125ae565b049086612710611e808654611e73856123bd565b90549060031b1c906125ae565b0483611e8c8489612540565b5283611fec575b80611f13575b50611f0e926001600160a01b03611eb0848a612540565b51168b52601260205260408b20611ec8828254612618565b90557f2e70527a7a6b90101e93acb892f805814f61535f085af5809efeed2048c1726160206001600160a01b03611eff868c612540565b511692604051908152a3612554565b611e34565b601454611f699250602091906001600160a01b0390811690611f35868c612540565b51168d60405180968195829463a9059cbb60e01b84526004840160209093929193604081019460018060a01b031681520152565b03925af1908115611fe1578a91611fc3575b5015611f8857865f611e99565b60405162461bcd60e51b8152602060048201526013602482015272121396481d1c985b9cd9995c8819985a5b1959606a1b6044820152606490fd5b611fdb915060203d81116107c4576107b681836124c0565b5f611f7b565b6040513d8c823e3d90fd5b905089808080866001600160a01b03612005888e612540565b51165af16120116125c1565b501561201e578790611e93565b60405162461bcd60e51b815260206004820152601a60248201527f41564158207072697a65207472616e73666572206661696c65640000000000006044820152606490fd5b5050845460ff1916600117909455604080518181528351918101829052606081019695509260200190855b8181106120d75750505090806120cd867fc1b60f03de0142802eef2afaff02546ce5ced8da57476a195b503fab5f71472a94838203602085015261241e565b0390a26001805580f35b82516001600160a01b031688526020978801979092019160010161208e565b506008548110611e3e565b6014546001600160a01b0316803b15610faa57604051634d24848760e11b815230600482015260248101929092525f908290604490829084905af1801561215e5715611dcc576121549196505f906124c0565b5f94611dd7611dcc565b6040513d5f823e3d90fd5b634e487b7160e01b5f52601160045260245ffd5b600f8102818104600f1482151715612169576005916064611dc19204906124b3565b60405162461bcd60e51b8152602060048201526011602482015270105b1c9958591e48199a5b985b1a5e9959607a1b6044820152606490fd5b60405162461bcd60e51b8152602060048201526014602482015273151bdd5c9b985b595b9d081b9bdd08195b99195960621b6044820152606490fd5b34610faa576020366003190112610faa5761222d6123a7565b6009545f19810181811161216957612245839161250e565b915f916001600160a01b031660015b8281106122a6575050506122678161250e565b915f5b82811061228757604051602080825281906119339082018761241e565b8061229460019284612540565b5161229f8287612540565b520161226a565b805f52600d60205260405f20825f5260205260ff60405f2054166122cd575b600101612254565b926122e581856122df60019489612540565b52612554565b9390506122c5565b34610faa576040366003190112610faa5760ff6123086123fe565b6123106126bf565b165f52600260205260243560405f20555f80f35b34610faa576060366003190112610faa5761233d612391565b604435906004355f52600e60205260405f209060018060a01b03165f5260205260405f208054821015610faa576020916118cf916123e9565b34610faa575f366003190112610faa57602060405160018152f35b602435906001600160a01b0382168203610faa57565b600435906001600160a01b0382168203610faa57565b6008548110156123d55760085f5260205f2001905f90565b634e487b7160e01b5f52603260045260245ffd5b80548210156123d5575f5260205f2001905f90565b6004359060ff82168203610faa57565b6024359060ff82168203610faa57565b90602080835192838152019201905f5b81811061243b5750505090565b825184526020938401939092019160010161242e565b6040906003190112610faa576004359060243590565b80548210156123d5575f52600760205f20910201905f90565b80548210156123d5575f52600360205f20910201905f90565b34610faa575f366003190112610faa5760206040515f8152f35b9190820391821161216957565b90601f8019910116810190811067ffffffffffffffff8211176124e257604052565b634e487b7160e01b5f52604160045260245ffd5b67ffffffffffffffff81116124e25760051b60200190565b90612518826124f6565b61252560405191826124c0565b8281528092612536601f19916124f6565b0190602036910137565b80518210156123d55760209160051b010190565b5f1981146121695760010190565b1561256957565b60405162461bcd60e51b815260206004820152601960248201527f546f75726e616d656e7420646f6573206e6f74206578697374000000000000006044820152606490fd5b8181029291811591840414171561216957565b3d156125fb573d9067ffffffffffffffff82116124e257604051916125f0601f8201601f1916602001846124c0565b82523d5f602084013e565b606090565b90816020910312610faa57518015158103610faa5790565b9190820180921161216957565b90604051918281549182825260208201905f5260205f20925f5b818110612656575050612654925003836124c0565b565b845483526001948501948794506020909301920161263f565b90600160401b81116124e25781549181815582821061268d57505050565b5f5260205f2091820191015b8181106126a4575050565b5f8155600101612699565b91908110156123d55760051b0190565b5f546001600160a01b031633036126d257565b63118cdaa760e01b5f523360045260245ffd5b6002600154146126f6576002600155565b633ee5aeb560e01b5f5260045ffd5b5f918252600c602052604082208054925b83811061272557505050505f90565b60016127318284612480565b50018054905f5b82811061274a57505050600101612716565b8561275582846123e9565b90549060031b1c1461276957600101612738565b5050505050505060019056fea2646970667358221220a6792b0ddb698eb5ff183969f26a1a3b0b11ed13ac4536132c4948b58795010f64736f6c634300081e0033",
  "linkReferences": {},
  "deployedLinkReferences": {},
  "immutableReferences": {},
  "inputSourceName": "project/contracts/core/TournamentSystem.sol",
  "buildInfoId": "solc-0_8_30-4ec0e5fa74e7f94ea2f418aa094351277224d9b1"
}