{
  "_format": "hh3-artifact-1",
  "contractName": "ColonyManager",
  "sourceName": "contracts/core/ColonyManager.sol",
  "abi": [
    {
      "inputs": [
        {
          "internalType": "address",
          "name": "antNFT_",
          "type": "address"
        },
        {
          "internalType": "address",
          "name": "hnyToken_",
          "type": "address"
        },
        {
          "internalType": "address",
          "name": "territoryStaking_",
          "type": "address"
        },
        {
          "internalType": "address",
          "name": "tournamentSystem_",
          "type": "address"
        }
      ],
      "stateMutability": "nonpayable",
      "type": "constructor"
    },
    {
      "inputs": [
        {
          "internalType": "address",
          "name": "owner",
          "type": "address"
        }
      ],
      "name": "OwnableInvalidOwner",
      "type": "error"
    },
    {
      "inputs": [
        {
          "internalType": "address",
          "name": "account",
          "type": "address"
        }
      ],
      "name": "OwnableUnauthorizedAccount",
      "type": "error"
    },
    {
      "inputs": [],
      "name": "ReentrancyGuardReentrantCall",
      "type": "error"
    },
    {
      "anonymous": false,
      "inputs": [
        {
          "indexed": true,
          "internalType": "address",
          "name": "player",
          "type": "address"
        },
        {
          "indexed": false,
          "internalType": "uint256",
          "name": "newLevel",
          "type": "uint256"
        }
      ],
      "name": "ColonyLevelUp",
      "type": "event"
    },
    {
      "anonymous": false,
      "inputs": [
        {
          "indexed": true,
          "internalType": "address",
          "name": "player",
          "type": "address"
        },
        {
          "indexed": false,
          "internalType": "uint256",
          "name": "resetCount",
          "type": "uint256"
        },
        {
          "indexed": false,
          "internalType": "uint256",
          "name": "hnyReward",
          "type": "uint256"
        }
      ],
      "name": "ColonyReset",
      "type": "event"
    },
    {
      "anonymous": false,
      "inputs": [
        {
          "indexed": true,
          "internalType": "address",
          "name": "player",
          "type": "address"
        },
        {
          "indexed": false,
          "internalType": "uint256",
          "name": "amount",
          "type": "uint256"
        }
      ],
      "name": "ExperienceGained",
      "type": "event"
    },
    {
      "anonymous": false,
      "inputs": [
        {
          "indexed": true,
          "internalType": "address",
          "name": "previousOwner",
          "type": "address"
        },
        {
          "indexed": true,
          "internalType": "address",
          "name": "newOwner",
          "type": "address"
        }
      ],
      "name": "OwnershipTransferred",
      "type": "event"
    },
    {
      "anonymous": false,
      "inputs": [
        {
          "indexed": true,
          "internalType": "address",
          "name": "player",
          "type": "address"
        },
        {
          "indexed": false,
          "internalType": "uint256",
          "name": "territoryId",
          "type": "uint256"
        }
      ],
      "name": "TerritoryAdded",
      "type": "event"
    },
    {
      "anonymous": false,
      "inputs": [
        {
          "indexed": true,
          "internalType": "address",
          "name": "player",
          "type": "address"
        },
        {
          "indexed": false,
          "internalType": "uint256",
          "name": "territoryId",
          "type": "uint256"
        }
      ],
      "name": "TerritoryRemoved",
      "type": "event"
    },
    {
      "inputs": [],
      "name": "FRESH_START_HNY",
      "outputs": [
        {
          "internalType": "uint256",
          "name": "",
          "type": "uint256"
        }
      ],
      "stateMutability": "view",
      "type": "function"
    },
    {
      "inputs": [],
      "name": "RESET_COOLDOWN_1",
      "outputs": [
        {
          "internalType": "uint256",
          "name": "",
          "type": "uint256"
        }
      ],
      "stateMutability": "view",
      "type": "function"
    },
    {
      "inputs": [],
      "name": "RESET_COOLDOWN_2",
      "outputs": [
        {
          "internalType": "uint256",
          "name": "",
          "type": "uint256"
        }
      ],
      "stateMutability": "view",
      "type": "function"
    },
    {
      "inputs": [],
      "name": "RESET_COOLDOWN_3",
      "outputs": [
        {
          "internalType": "uint256",
          "name": "",
          "type": "uint256"
        }
      ],
      "stateMutability": "view",
      "type": "function"
    },
    {
      "inputs": [],
      "name": "RESET_COOLDOWN_4",
      "outputs": [
        {
          "internalType": "uint256",
          "name": "",
          "type": "uint256"
        }
      ],
      "stateMutability": "view",
      "type": "function"
    },
    {
      "inputs": [],
      "name": "RESET_COST_AVAX_2",
      "outputs": [
        {
          "internalType": "uint256",
          "name": "",
          "type": "uint256"
        }
      ],
      "stateMutability": "view",
      "type": "function"
    },
    {
      "inputs": [],
      "name": "RESET_COST_AVAX_3",
      "outputs": [
        {
          "internalType": "uint256",
          "name": "",
          "type": "uint256"
        }
      ],
      "stateMutability": "view",
      "type": "function"
    },
    {
      "inputs": [],
      "name": "RESET_COST_AVAX_4",
      "outputs": [
        {
          "internalType": "uint256",
          "name": "",
          "type": "uint256"
        }
      ],
      "stateMutability": "view",
      "type": "function"
    },
    {
      "inputs": [],
      "name": "RESET_COST_HNY_2",
      "outputs": [
        {
          "internalType": "uint256",
          "name": "",
          "type": "uint256"
        }
      ],
      "stateMutability": "view",
      "type": "function"
    },
    {
      "inputs": [],
      "name": "RESET_COST_HNY_3",
      "outputs": [
        {
          "internalType": "uint256",
          "name": "",
          "type": "uint256"
        }
      ],
      "stateMutability": "view",
      "type": "function"
    },
    {
      "inputs": [],
      "name": "RESET_COST_HNY_4",
      "outputs": [
        {
          "internalType": "uint256",
          "name": "",
          "type": "uint256"
        }
      ],
      "stateMutability": "view",
      "type": "function"
    },
    {
      "inputs": [],
      "name": "WISDOM_FRAGMENTS_FIRST",
      "outputs": [
        {
          "internalType": "uint256",
          "name": "",
          "type": "uint256"
        }
      ],
      "stateMutability": "view",
      "type": "function"
    },
    {
      "inputs": [
        {
          "internalType": "address",
          "name": "player",
          "type": "address"
        },
        {
          "internalType": "uint256",
          "name": "amount",
          "type": "uint256"
        }
      ],
      "name": "addExperience",
      "outputs": [],
      "stateMutability": "nonpayable",
      "type": "function"
    },
    {
      "inputs": [
        {
          "internalType": "address",
          "name": "player",
          "type": "address"
        },
        {
          "internalType": "uint256",
          "name": "territoryId",
          "type": "uint256"
        }
      ],
      "name": "addTerritory",
      "outputs": [],
      "stateMutability": "nonpayable",
      "type": "function"
    },
    {
      "inputs": [],
      "name": "antNFT",
      "outputs": [
        {
          "internalType": "contract IAntNFT",
          "name": "",
          "type": "address"
        }
      ],
      "stateMutability": "view",
      "type": "function"
    },
    {
      "inputs": [
        {
          "internalType": "address",
          "name": "",
          "type": "address"
        }
      ],
      "name": "colonies",
      "outputs": [
        {
          "internalType": "uint256",
          "name": "level",
          "type": "uint256"
        },
        {
          "internalType": "uint256",
          "name": "experience",
          "type": "uint256"
        },
        {
          "internalType": "uint256",
          "name": "territoryCount",
          "type": "uint256"
        },
        {
          "internalType": "uint256",
          "name": "totalPower",
          "type": "uint256"
        },
        {
          "internalType": "uint256",
          "name": "lastResetTime",
          "type": "uint256"
        },
        {
          "internalType": "uint256",
          "name": "resetCount",
          "type": "uint256"
        }
      ],
      "stateMutability": "view",
      "type": "function"
    },
    {
      "inputs": [
        {
          "internalType": "address",
          "name": "",
          "type": "address"
        }
      ],
      "name": "colonyLevels",
      "outputs": [
        {
          "internalType": "uint256",
          "name": "",
          "type": "uint256"
        }
      ],
      "stateMutability": "view",
      "type": "function"
    },
    {
      "inputs": [
        {
          "internalType": "address",
          "name": "player",
          "type": "address"
        }
      ],
      "name": "getColonyDetails",
      "outputs": [
        {
          "internalType": "uint256",
          "name": "level",
          "type": "uint256"
        },
        {
          "internalType": "uint256",
          "name": "experience",
          "type": "uint256"
        },
        {
          "internalType": "uint256",
          "name": "territoryCount",
          "type": "uint256"
        },
        {
          "internalType": "uint256",
          "name": "totalPower",
          "type": "uint256"
        },
        {
          "internalType": "uint256",
          "name": "resetCount",
          "type": "uint256"
        },
        {
          "internalType": "uint256",
          "name": "nextLevelXP",
          "type": "uint256"
        }
      ],
      "stateMutability": "view",
      "type": "function"
    },
    {
      "inputs": [
        {
          "internalType": "address",
          "name": "player",
          "type": "address"
        }
      ],
      "name": "getResetBenefits",
      "outputs": [
        {
          "internalType": "uint256",
          "name": "hnyReward",
          "type": "uint256"
        },
        {
          "internalType": "uint256",
          "name": "wisdomFragments",
          "type": "uint256"
        },
        {
          "internalType": "bool",
          "name": "hasReset",
          "type": "bool"
        }
      ],
      "stateMutability": "view",
      "type": "function"
    },
    {
      "inputs": [
        {
          "internalType": "uint256",
          "name": "resetCount",
          "type": "uint256"
        }
      ],
      "name": "getResetCooldown",
      "outputs": [
        {
          "internalType": "uint256",
          "name": "",
          "type": "uint256"
        }
      ],
      "stateMutability": "pure",
      "type": "function"
    },
    {
      "inputs": [
        {
          "internalType": "uint256",
          "name": "resetNumber",
          "type": "uint256"
        }
      ],
      "name": "getResetCostAVAX",
      "outputs": [
        {
          "internalType": "uint256",
          "name": "",
          "type": "uint256"
        }
      ],
      "stateMutability": "pure",
      "type": "function"
    },
    {
      "inputs": [
        {
          "internalType": "uint256",
          "name": "resetNumber",
          "type": "uint256"
        }
      ],
      "name": "getResetCostHNY",
      "outputs": [
        {
          "internalType": "uint256",
          "name": "",
          "type": "uint256"
        }
      ],
      "stateMutability": "pure",
      "type": "function"
    },
    {
      "inputs": [],
      "name": "hnyToken",
      "outputs": [
        {
          "internalType": "contract HoneyDewToken",
          "name": "",
          "type": "address"
        }
      ],
      "stateMutability": "view",
      "type": "function"
    },
    {
      "inputs": [],
      "name": "initializeColony",
      "outputs": [],
      "stateMutability": "nonpayable",
      "type": "function"
    },
    {
      "inputs": [],
      "name": "owner",
      "outputs": [
        {
          "internalType": "address",
          "name": "",
          "type": "address"
        }
      ],
      "stateMutability": "view",
      "type": "function"
    },
    {
      "inputs": [
        {
          "internalType": "address",
          "name": "",
          "type": "address"
        },
        {
          "internalType": "uint256",
          "name": "",
          "type": "uint256"
        }
      ],
      "name": "playerTerritories",
      "outputs": [
        {
          "internalType": "bool",
          "name": "",
          "type": "bool"
        }
      ],
      "stateMutability": "view",
      "type": "function"
    },
    {
      "inputs": [
        {
          "internalType": "address",
          "name": "player",
          "type": "address"
        },
        {
          "internalType": "uint256",
          "name": "territoryId",
          "type": "uint256"
        }
      ],
      "name": "removeTerritory",
      "outputs": [],
      "stateMutability": "nonpayable",
      "type": "function"
    },
    {
      "inputs": [],
      "name": "renounceOwnership",
      "outputs": [],
      "stateMutability": "nonpayable",
      "type": "function"
    },
    {
      "inputs": [
        {
          "internalType": "address",
          "name": "",
          "type": "address"
        }
      ],
      "name": "resetBenefits",
      "outputs": [
        {
          "internalType": "uint256",
          "name": "hnyReward",
          "type": "uint256"
        },
        {
          "internalType": "uint256",
          "name": "wisdomFragments",
          "type": "uint256"
        },
        {
          "internalType": "bool",
          "name": "hasReset",
          "type": "bool"
        }
      ],
      "stateMutability": "view",
      "type": "function"
    },
    {
      "inputs": [
        {
          "internalType": "uint256",
          "name": "paymentToken",
          "type": "uint256"
        }
      ],
      "name": "resetColony",
      "outputs": [],
      "stateMutability": "payable",
      "type": "function"
    },
    {
      "inputs": [
        {
          "internalType": "address",
          "name": "antNFT_",
          "type": "address"
        }
      ],
      "name": "setAntNFT",
      "outputs": [],
      "stateMutability": "nonpayable",
      "type": "function"
    },
    {
      "inputs": [
        {
          "internalType": "address",
          "name": "hnyToken_",
          "type": "address"
        }
      ],
      "name": "setHNYToken",
      "outputs": [],
      "stateMutability": "nonpayable",
      "type": "function"
    },
    {
      "inputs": [
        {
          "internalType": "address",
          "name": "territoryStaking_",
          "type": "address"
        }
      ],
      "name": "setTerritoryStaking",
      "outputs": [],
      "stateMutability": "nonpayable",
      "type": "function"
    },
    {
      "inputs": [
        {
          "internalType": "address",
          "name": "tournamentSystem_",
          "type": "address"
        }
      ],
      "name": "setTournamentSystem",
      "outputs": [],
      "stateMutability": "nonpayable",
      "type": "function"
    },
    {
      "inputs": [],
      "name": "territoryStaking",
      "outputs": [
        {
          "internalType": "contract ITerritoryStaking",
          "name": "",
          "type": "address"
        }
      ],
      "stateMutability": "view",
      "type": "function"
    },
    {
      "inputs": [
        {
          "internalType": "address",
          "name": "",
          "type": "address"
        }
      ],
      "name": "totalExperience",
      "outputs": [
        {
          "internalType": "uint256",
          "name": "",
          "type": "uint256"
        }
      ],
      "stateMutability": "view",
      "type": "function"
    },
    {
      "inputs": [],
      "name": "tournamentSystem",
      "outputs": [
        {
          "internalType": "contract ITournamentSystem",
          "name": "",
          "type": "address"
        }
      ],
      "stateMutability": "view",
      "type": "function"
    },
    {
      "inputs": [
        {
          "internalType": "address",
          "name": "newOwner",
          "type": "address"
        }
      ],
      "name": "transferOwnership",
      "outputs": [],
      "stateMutability": "nonpayable",
      "type": "function"
    },
    {
      "stateMutability": "payable",
      "type": "receive"
    }
  ],
  "bytecode": "0x60803461012f57601f6117d638819003918201601f19168301916001600160401b038311848410176101335780849260809460405283398101031261012f5761004781610147565b9061005460208201610147565b9061006d606061006660408401610147565b9201610147565b91331561011c575f8054336001600160a01b0319821681178355604051969290916001600160a01b0316907f8be0079c531659141344cd1fd0a4f28419497f9722a3daafe3b4186f6b6457e09080a360018055600280546001600160a01b03199081166001600160a01b03938416179091556003805482169383169390931790925560048054831693821693909317909255600580549091169290911691909117905561167a908161015c8239f35b631e4fbdf760e01b5f525f60045260245ffd5b5f80fd5b634e487b7160e01b5f52604160045260245ffd5b51906001600160a01b038216820361012f5756fe6080604052600436101561001a575b3615610018575f80fd5b005b5f5f3560e01c806313d46490146112fc5780631e34e966146112d95780631fedb0be1461129657806327811bef1461127957806327823ca71461125657806334a1903a146112135780633690ff19146111f55780633f550b42146111ac578063516155521461118a57806353d1612f1461116d5780635c69aba91461113557806363c4b76a14611111578063699e7dfc146110f4578063704ef599146110cc578063715018a6146110755780637b2342da1461104d57806382f9d6d714610a355780638462944c14610a12578063892be5d8146105445780638da5cb5b146109eb5780638e5bc3861461092b5780639cb7239b1461086c578063a242678314610833578063b0b512c314610786578063b20c9c92146106d2578063b628d48f1461068d578063c4176ad41461060f578063c46f8c9c146105f0578063c493fe10146105d2578063c57a32e2146105a9578063cd3d2e3014610544578063d60667711461051f578063dc1afaae146104fd578063f13a5263146104d6578063f2fde38b14610450578063f3007bc41461020e578063f4342a00146101f25763f54e6f63146101c7575061000e565b346101ef57806003193601126101ef576002546040516001600160a01b039091168152602090f35b80fd5b50346101ef57806003193601126101ef57602060405160018152f35b50346101ef5760403660031901126101ef5761022861133f565b6024359060018060a01b03600254163314801561043c575b8015610428575b8015610415575b6102579061142b565b60018060a01b031691828152600660205260408120916102798354151561139c565b600183016102888282546113e1565b81558483526009602052604083206102a18382546113e1565b90555b8354600a8110806103df575b156103af576102be81611466565b8060640290606482040361039b576102ed916102de6102e59285546113ee565b845561141d565b8086556115be565b80610326575b50847ffb35e79bf995745527812d94774e6f5155c6ad8f9046457231944085357dfe9160208654604051908152a26102a4565b6003546001600160a01b031690813b15610397578491604483926040519485938492634d24848760e11b84528c600485015260248401525af1801561038c57908491610373575b506102f3565b8161037d916113fb565b61038857825f61036d565b8280fd5b6040513d86823e3d90fd5b8480fd5b634e487b7160e01b85526011600452602485fd5b83867ffc88aaf1c80f854cdb8d2c6f22b8c5bdc0390fa19b2bfe229d648637d668d0c7602086604051908152a280f35b5081546103eb82611466565b90816064029160648304036104015710156102b0565b634e487b7160e01b86526011600452602486fd5b5082546001600160a01b0316331461024e565b506005546001600160a01b03163314610247565b506004546001600160a01b03163314610240565b50346101ef5760203660031901126101ef5761046a61133f565b610472611598565b6001600160a01b031680156104c25781546001600160a01b03198116821783556001600160a01b03167f8be0079c531659141344cd1fd0a4f28419497f9722a3daafe3b4186f6b6457e08380a380f35b631e4fbdf760e01b82526004829052602482fd5b50346101ef5760203660031901126101ef5760206104f5600435611565565b604051908152f35b50346101ef57806003193601126101ef57602060405166b1a2bc2ec500008152f35b50346101ef57806003193601126101ef57602060405169021e19e0c9bab24000008152f35b50346101ef5760203660031901126101ef576040906001600160a01b0361056961133f565b16815260076020522080546105a560ff600260018501549401541660405193849384919260409194936060840195845260208401521515910152565b0390f35b50346101ef57806003193601126101ef576003546040516001600160a01b039091168152602090f35b50346101ef57806003193601126101ef57602060405162278d008152f35b50346101ef5760203660031901126101ef5760206104f5600435611524565b50346101ef5760203660031901126101ef576040906001600160a01b0361063461133f565b16815260066020522080546105a560018301549260028101549060038101546005600483015492015492604051968796879260a094919796959260c0850198855260208501526040840152606083015260808201520152565b50346101ef5760203660031901126101ef576106a761133f565b6106af611598565b60018060a01b03166bffffffffffffffffffffffff60a01b600354161760035580f35b50346101ef5760203660031901126101ef576001600160a01b036106f461133f565b168152600660205260408120805461070d81151561139c565b600182015491600281015490600560038201549101549061072d84611466565b9283606402936064850403610772576105a594959650604051968796879260a094919796959260c0850198855260208501526040840152606083015260808201520152565b634e487b7160e01b87526011600452602487fd5b50346101ef57806003193601126101ef57338152600660205260408120546107ee5733815260066020526040812060018155600442910155604051600181527ffb35e79bf995745527812d94774e6f5155c6ad8f9046457231944085357dfe9160203392a280f35b60405162461bcd60e51b815260206004820152601a60248201527f436f6c6f6e7920616c726561647920696e697469616c697a65640000000000006044820152606490fd5b50346101ef5760203660031901126101ef576020906040906001600160a01b0361085b61133f565b168152600983522054604051908152f35b50346101ef5760403660031901126101ef5761088661133f565b7fe52ec7454fb4a83df237e35430e475f1c4d79a9b36bc10860ff6ad856a28f07b60206024359260018060a01b036004541633148015610918575b6108ca9061142b565b6001600160a01b0316808552600a825260408086208587528352808620805460ff19166001179055818652600683528520600201805491949161090c9061141d565b9055604051908152a280f35b5084546001600160a01b031633146108c1565b50346101ef5760403660031901126101ef5761094561133f565b6024359060018060a01b0360045416331480156109d8575b6109669061142b565b60018060a01b031690818352600a602052604083208184526020526040832060ff1981541690558183526006602052600260408420018054801561039b575f190190556040519081527f38da3fd4dd379c9bbd0961adde1d195ce794472a33239a192ced5a74c8e1d5a890602090a280f35b5082546001600160a01b0316331461095d565b50346101ef57806003193601126101ef57546040516001600160a01b039091168152602090f35b50346101ef57806003193601126101ef5760206040516702c68af0bb1400008152f35b506020366003190112610e145760026001541461103e576002600155335f52600660205260405f2090610a6a8254151561139c565b60048201918254926005820193610a8c855491610a8683611565565b906113e1565b42106110075760018101809111610ff35760018111610d1a575b506002546040516323cdefd160e11b815233600482015294908490869060249082906001600160a01b03165afa91821561038c578492610c62575b8480965093945b8351811015610b7a57600254600582901b850160200151906001600160a01b0316803b15610b76576040516323b872dd60e01b8152336004820152306024820152604481019290925286908290606490829084905af1908115610b6b578691610b56575b5050600101610ae8565b81610b60916113fb565b61039757845f610b4c565b6040513d88823e3d90fd5b8680fd5b8483838260038a6001815582600182015582600282015501554290556001610ba2825461141d565b80835514610bee575b546040519081526801a055690d9db8000060208201527f90bb26ca2423d508bce8ef133eb2480f18af1923f54cd64bb3cf30cbfa1a9b5c60403392a26001805580f35b3382526007602052604082208054906801a055690d9db800008201809211610c4e575533825260076020526001604083200180549060018201809211610c4e5755338252600760205260408220600201805460ff19166001179055610bab565b634e487b7160e01b84526011600452602484fd5b91503d8085873e610c7381876113fb565b8501946020818703126103975780519067ffffffffffffffff8211610d1657019480601f870112156103975785519067ffffffffffffffff8211610d02578160051b9660405192610cc760208a01856113fb565b8352602080840198820101918211610b7657602001965b818810610cf2575094955085945091610ae1565b8751815260209788019701610cde565b634e487b7160e01b86526041600452602486fd5b8580fd5b600435610ef757610d2a90611355565b9360018060a01b03600354166040516370a0823160e01b8152336004820152602081602481855afa8015610e095787915f91610ec2575b5010610e8a576040516323b872dd60e01b81523360048201523060248201526044810187905290602090829060649082905f905af1908115610e09575f91610e4f575b5015610e18576003546001600160a01b031694853b15610e14575f95602487926040519889938492630852cd8d60e31b845260048401525af1948515610e0957602495610df4575b505b93610aa6565b610e019194505f906113fb565b5f925f610dec565b6040513d5f823e3d90fd5b5f80fd5b60405162461bcd60e51b815260206004820152600f60248201526e151c985b9cd9995c8819985a5b1959608a1b6044820152606490fd5b90506020813d602011610e82575b81610e6a602093836113fb565b81010312610e1457518015158103610e14575f610da4565b3d9150610e5d565b60405162461bcd60e51b815260206004820152601060248201526f496e73756666696369656e7420484e5960801b6044820152606490fd5b9150506020813d602011610eef575b81610ede602093836113fb565b81010312610e14578690515f610d61565b3d9150610ed1565b610f0090611524565b803410610fba57803411610f18575b50602493610dee565b5f8080610f268194346113ee565b335af13d15610fb5573d67ffffffffffffffff8111610fa15760405190610f57601f8201601f1916602001836113fb565b81525f60203d92013e5b15610f6c575f610f0f565b60405162461bcd60e51b815260206004820152600d60248201526c1499599d5b990819985a5b1959609a1b6044820152606490fd5b634e487b7160e01b5f52604160045260245ffd5b610f61565b60405162461bcd60e51b8152602060048201526011602482015270092dce6eaccccd2c6d2cadce84082ac82b607b1b6044820152606490fd5b634e487b7160e01b5f52601160045260245ffd5b60405162461bcd60e51b815260206004820152600f60248201526e436f6f6c646f776e2061637469766560881b6044820152606490fd5b633ee5aeb560e01b5f5260045ffd5b34610e14575f366003190112610e14576004546040516001600160a01b039091168152602090f35b34610e14575f366003190112610e145761108d611598565b5f80546001600160a01b0319811682556001600160a01b03167f8be0079c531659141344cd1fd0a4f28419497f9722a3daafe3b4186f6b6457e08280a3005b34610e14575f366003190112610e14576005546040516001600160a01b039091168152602090f35b34610e14575f366003190112610e14576020604051624f1a008152f35b34610e14575f366003190112610e1457602060405169010f0cf064dd592000008152f35b34610e14576020366003190112610e14576001600160a01b0361115661133f565b165f526008602052602060405f2054604051908152f35b34610e14575f366003190112610e14576020604051621275008152f35b34610e14575f366003190112610e1457602060405167016345785d8a00008152f35b34610e14576040366003190112610e14576001600160a01b036111cd61133f565b165f52600a60205260405f206024355f52602052602060ff60405f2054166040519015158152f35b34610e14576020366003190112610e145760206104f5600435611355565b34610e14576020366003190112610e145761122c61133f565b611234611598565b600480546001600160a01b0319166001600160a01b0392909216919091179055005b34610e14575f366003190112610e14576020604051686c6b935b8bbd4000008152f35b34610e14575f366003190112610e1457602060405162093a808152f35b34610e14576020366003190112610e14576112af61133f565b6112b7611598565b600580546001600160a01b0319166001600160a01b0392909216919091179055005b34610e14575f366003190112610e145760206040516801a055690d9db800008152f35b34610e14576020366003190112610e145761131561133f565b61131d611598565b600280546001600160a01b0319166001600160a01b0392909216919091179055005b600435906001600160a01b0382168203610e1457565b6002811461138e576003811461137f5760041115611371575f90565b69021e19e0c9bab240000090565b5069010f0cf064dd5920000090565b50686c6b935b8bbd40000090565b156113a357565b60405162461bcd60e51b815260206004820152601660248201527510dbdb1bdb9e481b9bdd081a5b9a5d1a585b1a5e995960521b6044820152606490fd5b91908201809211610ff357565b91908203918211610ff357565b90601f8019910116810190811067ffffffffffffffff821117610fa157604052565b5f198114610ff35760010190565b1561143257565b60405162461bcd60e51b815260206004820152600c60248201526b155b985d5d1a1bdc9a5e995960a21b6044820152606490fd5b5f90801561151e5780806001146115165760021461150f5760016101338210166001600b83101617611501579060019060025b600181116114c55750825f190482116114b157500290565b634e487b7160e01b81526011600452602490fd5b92805f190481116114ed57600184166114e4575b80029260011c611499565b809202916114d9565b634e487b7160e01b82526011600452602482fd5b6002900a9190806114b15750565b5050600490565b505050600190565b50505f90565b60028114611559576003811461154c5760041115611540575f90565b6702c68af0bb14000090565b5067016345785d8a000090565b5066b1a2bc2ec5000090565b801561159057600181146115885760021461158157624f1a0090565b62278d0090565b506212750090565b5062093a8090565b5f546001600160a01b031633036115ab57565b63118cdaa760e01b5f523360045260245ffd5b6005811461163657600a811461162857600f811461161a576014811461160c57601981146115fe57601e146115f1575f90565b680d8d726b7177a8000090565b50680ad78ebc5ac620000090565b50680821ab0d441498000090565b5068056bc75e2d6310000090565b50680410d586a20a4c000090565b506802b5e3af16b18800009056fea264697066735822122050f268c4f01bb86af67d19fa2a38f89fb41e04a82af8f22f0ddc9f3977b7398b64736f6c634300081e0033",
  "linkReferences": {},
  "deployedLinkReferences": {},
  "immutableReferences": {},
  "inputSourceName": "project/contracts/core/ColonyManager.sol",
  "buildInfoId": "solc-0_8_30-73ec22fcadcb9ee5078dad39995f5143a9b7078f"
}