{
  "_format": "hh3-artifact-1",
  "contractName": "HoneyDewToken",
  "sourceName": "contracts/tokens/HoneyDewToken.sol",
  "abi": [
    {
      "inputs": [],
      "stateMutability": "nonpayable",
      "type": "constructor"
    },
    {
      "inputs": [
        {
          "internalType": "address",
          "name": "spender",
          "type": "address"
        },
        {
          "internalType": "uint256",
          "name": "allowance",
          "type": "uint256"
        },
        {
          "internalType": "uint256",
          "name": "needed",
          "type": "uint256"
        }
      ],
      "name": "ERC20InsufficientAllowance",
      "type": "error"
    },
    {
      "inputs": [
        {
          "internalType": "address",
          "name": "sender",
          "type": "address"
        },
        {
          "internalType": "uint256",
          "name": "balance",
          "type": "uint256"
        },
        {
          "internalType": "uint256",
          "name": "needed",
          "type": "uint256"
        }
      ],
      "name": "ERC20InsufficientBalance",
      "type": "error"
    },
    {
      "inputs": [
        {
          "internalType": "address",
          "name": "approver",
          "type": "address"
        }
      ],
      "name": "ERC20InvalidApprover",
      "type": "error"
    },
    {
      "inputs": [
        {
          "internalType": "address",
          "name": "receiver",
          "type": "address"
        }
      ],
      "name": "ERC20InvalidReceiver",
      "type": "error"
    },
    {
      "inputs": [
        {
          "internalType": "address",
          "name": "sender",
          "type": "address"
        }
      ],
      "name": "ERC20InvalidSender",
      "type": "error"
    },
    {
      "inputs": [
        {
          "internalType": "address",
          "name": "spender",
          "type": "address"
        }
      ],
      "name": "ERC20InvalidSpender",
      "type": "error"
    },
    {
      "inputs": [
        {
          "internalType": "address",
          "name": "owner",
          "type": "address"
        }
      ],
      "name": "OwnableInvalidOwner",
      "type": "error"
    },
    {
      "inputs": [
        {
          "internalType": "address",
          "name": "account",
          "type": "address"
        }
      ],
      "name": "OwnableUnauthorizedAccount",
      "type": "error"
    },
    {
      "inputs": [],
      "name": "ReentrancyGuardReentrantCall",
      "type": "error"
    },
    {
      "anonymous": false,
      "inputs": [
        {
          "indexed": true,
          "internalType": "address",
          "name": "owner",
          "type": "address"
        },
        {
          "indexed": true,
          "internalType": "address",
          "name": "spender",
          "type": "address"
        },
        {
          "indexed": false,
          "internalType": "uint256",
          "name": "value",
          "type": "uint256"
        }
      ],
      "name": "Approval",
      "type": "event"
    },
    {
      "anonymous": false,
      "inputs": [
        {
          "indexed": true,
          "internalType": "address",
          "name": "user",
          "type": "address"
        },
        {
          "indexed": false,
          "internalType": "uint256",
          "name": "hnyAmount",
          "type": "uint256"
        },
        {
          "indexed": false,
          "internalType": "uint256",
          "name": "avaxAmount",
          "type": "uint256"
        },
        {
          "indexed": false,
          "internalType": "uint256",
          "name": "fee",
          "type": "uint256"
        }
      ],
      "name": "ConvertedToAVAX",
      "type": "event"
    },
    {
      "anonymous": false,
      "inputs": [
        {
          "indexed": false,
          "internalType": "uint256",
          "name": "timestamp",
          "type": "uint256"
        },
        {
          "indexed": false,
          "internalType": "uint256",
          "name": "amount",
          "type": "uint256"
        }
      ],
      "name": "EmissionUpdated",
      "type": "event"
    },
    {
      "anonymous": false,
      "inputs": [
        {
          "indexed": true,
          "internalType": "address",
          "name": "previousOwner",
          "type": "address"
        },
        {
          "indexed": true,
          "internalType": "address",
          "name": "newOwner",
          "type": "address"
        }
      ],
      "name": "OwnershipTransferred",
      "type": "event"
    },
    {
      "anonymous": false,
      "inputs": [
        {
          "indexed": true,
          "internalType": "address",
          "name": "burner",
          "type": "address"
        },
        {
          "indexed": false,
          "internalType": "uint256",
          "name": "amount",
          "type": "uint256"
        }
      ],
      "name": "TokensBurned",
      "type": "event"
    },
    {
      "anonymous": false,
      "inputs": [
        {
          "indexed": true,
          "internalType": "address",
          "name": "from",
          "type": "address"
        },
        {
          "indexed": true,
          "internalType": "address",
          "name": "to",
          "type": "address"
        },
        {
          "indexed": false,
          "internalType": "uint256",
          "name": "value",
          "type": "uint256"
        }
      ],
      "name": "Transfer",
      "type": "event"
    },
    {
      "inputs": [],
      "name": "CONVERSION_FEE_BPS",
      "outputs": [
        {
          "internalType": "uint256",
          "name": "",
          "type": "uint256"
        }
      ],
      "stateMutability": "view",
      "type": "function"
    },
    {
      "inputs": [],
      "name": "DAILY_CONVERSION_LIMIT",
      "outputs": [
        {
          "internalType": "uint256",
          "name": "",
          "type": "uint256"
        }
      ],
      "stateMutability": "view",
      "type": "function"
    },
    {
      "inputs": [],
      "name": "MAX_SUPPLY",
      "outputs": [
        {
          "internalType": "uint256",
          "name": "",
          "type": "uint256"
        }
      ],
      "stateMutability": "view",
      "type": "function"
    },
    {
      "inputs": [],
      "name": "MONTHLY_CONVERSION_LIMIT",
      "outputs": [
        {
          "internalType": "uint256",
          "name": "",
          "type": "uint256"
        }
      ],
      "stateMutability": "view",
      "type": "function"
    },
    {
      "inputs": [],
      "name": "YEAR_1_DAILY",
      "outputs": [
        {
          "internalType": "uint256",
          "name": "",
          "type": "uint256"
        }
      ],
      "stateMutability": "view",
      "type": "function"
    },
    {
      "inputs": [],
      "name": "YEAR_2_DAILY",
      "outputs": [
        {
          "internalType": "uint256",
          "name": "",
          "type": "uint256"
        }
      ],
      "stateMutability": "view",
      "type": "function"
    },
    {
      "inputs": [],
      "name": "YEAR_3_DAILY",
      "outputs": [
        {
          "internalType": "uint256",
          "name": "",
          "type": "uint256"
        }
      ],
      "stateMutability": "view",
      "type": "function"
    },
    {
      "inputs": [],
      "name": "YEAR_4_DAILY",
      "outputs": [
        {
          "internalType": "uint256",
          "name": "",
          "type": "uint256"
        }
      ],
      "stateMutability": "view",
      "type": "function"
    },
    {
      "inputs": [],
      "name": "YEAR_5_DAILY",
      "outputs": [
        {
          "internalType": "uint256",
          "name": "",
          "type": "uint256"
        }
      ],
      "stateMutability": "view",
      "type": "function"
    },
    {
      "inputs": [
        {
          "internalType": "address",
          "name": "owner",
          "type": "address"
        },
        {
          "internalType": "address",
          "name": "spender",
          "type": "address"
        }
      ],
      "name": "allowance",
      "outputs": [
        {
          "internalType": "uint256",
          "name": "",
          "type": "uint256"
        }
      ],
      "stateMutability": "view",
      "type": "function"
    },
    {
      "inputs": [
        {
          "internalType": "address",
          "name": "spender",
          "type": "address"
        },
        {
          "internalType": "uint256",
          "name": "value",
          "type": "uint256"
        }
      ],
      "name": "approve",
      "outputs": [
        {
          "internalType": "bool",
          "name": "",
          "type": "bool"
        }
      ],
      "stateMutability": "nonpayable",
      "type": "function"
    },
    {
      "inputs": [
        {
          "internalType": "address",
          "name": "account",
          "type": "address"
        }
      ],
      "name": "balanceOf",
      "outputs": [
        {
          "internalType": "uint256",
          "name": "",
          "type": "uint256"
        }
      ],
      "stateMutability": "view",
      "type": "function"
    },
    {
      "inputs": [
        {
          "internalType": "uint256",
          "name": "value",
          "type": "uint256"
        }
      ],
      "name": "burn",
      "outputs": [],
      "stateMutability": "nonpayable",
      "type": "function"
    },
    {
      "inputs": [
        {
          "internalType": "address",
          "name": "account",
          "type": "address"
        },
        {
          "internalType": "uint256",
          "name": "value",
          "type": "uint256"
        }
      ],
      "name": "burnFrom",
      "outputs": [],
      "stateMutability": "nonpayable",
      "type": "function"
    },
    {
      "inputs": [
        {
          "internalType": "uint256",
          "name": "amount",
          "type": "uint256"
        }
      ],
      "name": "convertToAVAX",
      "outputs": [],
      "stateMutability": "nonpayable",
      "type": "function"
    },
    {
      "inputs": [
        {
          "internalType": "address",
          "name": "",
          "type": "address"
        }
      ],
      "name": "dailyConverted",
      "outputs": [
        {
          "internalType": "uint256",
          "name": "",
          "type": "uint256"
        }
      ],
      "stateMutability": "view",
      "type": "function"
    },
    {
      "inputs": [],
      "name": "decimals",
      "outputs": [
        {
          "internalType": "uint8",
          "name": "",
          "type": "uint8"
        }
      ],
      "stateMutability": "view",
      "type": "function"
    },
    {
      "inputs": [],
      "name": "emissionStartTime",
      "outputs": [
        {
          "internalType": "uint256",
          "name": "",
          "type": "uint256"
        }
      ],
      "stateMutability": "view",
      "type": "function"
    },
    {
      "inputs": [],
      "name": "emitDailyTokens",
      "outputs": [],
      "stateMutability": "nonpayable",
      "type": "function"
    },
    {
      "inputs": [],
      "name": "emittedSupply",
      "outputs": [
        {
          "internalType": "uint256",
          "name": "",
          "type": "uint256"
        }
      ],
      "stateMutability": "view",
      "type": "function"
    },
    {
      "inputs": [],
      "name": "getCurrentDailyEmission",
      "outputs": [
        {
          "internalType": "uint256",
          "name": "",
          "type": "uint256"
        }
      ],
      "stateMutability": "view",
      "type": "function"
    },
    {
      "inputs": [
        {
          "internalType": "address",
          "name": "",
          "type": "address"
        }
      ],
      "name": "lastDailyReset",
      "outputs": [
        {
          "internalType": "uint256",
          "name": "",
          "type": "uint256"
        }
      ],
      "stateMutability": "view",
      "type": "function"
    },
    {
      "inputs": [],
      "name": "lastEmissionTime",
      "outputs": [
        {
          "internalType": "uint256",
          "name": "",
          "type": "uint256"
        }
      ],
      "stateMutability": "view",
      "type": "function"
    },
    {
      "inputs": [
        {
          "internalType": "address",
          "name": "",
          "type": "address"
        }
      ],
      "name": "lastMonthlyReset",
      "outputs": [
        {
          "internalType": "uint256",
          "name": "",
          "type": "uint256"
        }
      ],
      "stateMutability": "view",
      "type": "function"
    },
    {
      "inputs": [
        {
          "internalType": "address",
          "name": "to",
          "type": "address"
        },
        {
          "internalType": "uint256",
          "name": "amount",
          "type": "uint256"
        }
      ],
      "name": "mintReward",
      "outputs": [],
      "stateMutability": "nonpayable",
      "type": "function"
    },
    {
      "inputs": [
        {
          "internalType": "address",
          "name": "",
          "type": "address"
        }
      ],
      "name": "monthlyConverted",
      "outputs": [
        {
          "internalType": "uint256",
          "name": "",
          "type": "uint256"
        }
      ],
      "stateMutability": "view",
      "type": "function"
    },
    {
      "inputs": [],
      "name": "name",
      "outputs": [
        {
          "internalType": "string",
          "name": "",
          "type": "string"
        }
      ],
      "stateMutability": "view",
      "type": "function"
    },
    {
      "inputs": [],
      "name": "owner",
      "outputs": [
        {
          "internalType": "address",
          "name": "",
          "type": "address"
        }
      ],
      "stateMutability": "view",
      "type": "function"
    },
    {
      "inputs": [],
      "name": "renounceOwnership",
      "outputs": [],
      "stateMutability": "nonpayable",
      "type": "function"
    },
    {
      "inputs": [],
      "name": "symbol",
      "outputs": [
        {
          "internalType": "string",
          "name": "",
          "type": "string"
        }
      ],
      "stateMutability": "view",
      "type": "function"
    },
    {
      "inputs": [],
      "name": "totalSupply",
      "outputs": [
        {
          "internalType": "uint256",
          "name": "",
          "type": "uint256"
        }
      ],
      "stateMutability": "view",
      "type": "function"
    },
    {
      "inputs": [
        {
          "internalType": "address",
          "name": "to",
          "type": "address"
        },
        {
          "internalType": "uint256",
          "name": "value",
          "type": "uint256"
        }
      ],
      "name": "transfer",
      "outputs": [
        {
          "internalType": "bool",
          "name": "",
          "type": "bool"
        }
      ],
      "stateMutability": "nonpayable",
      "type": "function"
    },
    {
      "inputs": [
        {
          "internalType": "address",
          "name": "from",
          "type": "address"
        },
        {
          "internalType": "address",
          "name": "to",
          "type": "address"
        },
        {
          "internalType": "uint256",
          "name": "value",
          "type": "uint256"
        }
      ],
      "name": "transferFrom",
      "outputs": [
        {
          "internalType": "bool",
          "name": "",
          "type": "bool"
        }
      ],
      "stateMutability": "nonpayable",
      "type": "function"
    },
    {
      "inputs": [
        {
          "internalType": "address",
          "name": "newOwner",
          "type": "address"
        }
      ],
      "name": "transferOwnership",
      "outputs": [],
      "stateMutability": "nonpayable",
      "type": "function"
    },
    {
      "stateMutability": "payable",
      "type": "receive"
    }
  ],
  "bytecode": "0x60806040523461041c57604080519081016001600160401b0381118282101761032f576040908152600e82526d2437b732bca232bb902a37b5b2b760911b602083015280519081016001600160401b0381118282101761032f57604052600481526353484e5960e01b602082015281516001600160401b03811161032f57600354600181811c91168015610412575b602082101461031157601f81116103af575b50602092601f821160011461034e57928192935f92610343575b50508160011b915f199060031b1c1916176003555b80516001600160401b03811161032f57600454600181811c91168015610325575b602082101461031157601f81116102ae575b50602091601f821160011461024e579181925f92610243575b50508160011b915f199060031b1c1916176004555b33156102305760058054336001600160a01b0319821681179092556001600160a01b03167f8be0079c531659141344cd1fd0a4f28419497f9722a3daafe3b4186f6b6457e05f80a3600160065542600b5542600c55301561021d576002546a295be96e64066972000000810180911161020957600255305f525f60205260405f206a295be96e6406697200000081540190556040516a295be96e6406697200000081525f7fddf252ad1be2c89b69c2b068fc378daa952ba7f163c4a11628f55a4df523b3ef60203093a360405161127090816104218239f35b634e487b7160e01b5f52601160045260245ffd5b63ec442f0560e01b5f525f60045260245ffd5b631e4fbdf760e01b5f525f60045260245ffd5b015190505f8061011b565b601f1982169260045f52805f20915f5b8581106102965750836001951061027e575b505050811b01600455610130565b01515f1960f88460031b161c191690555f8080610270565b9192602060018192868501518155019401920161025e565b60045f527f8a35acfbc15ff81a39ae7d344fd709f28e8600b4aa8c65c6b64bfe7fe36bd19b601f830160051c81019160208410610307575b601f0160051c01905b8181106102fc5750610102565b5f81556001016102ef565b90915081906102e6565b634e487b7160e01b5f52602260045260245ffd5b90607f16906100f0565b634e487b7160e01b5f52604160045260245ffd5b015190505f806100ba565b601f1982169360035f52805f20915f5b868110610397575083600195961061037f575b505050811b016003556100cf565b01515f1960f88460031b161c191690555f8080610371565b9192602060018192868501518155019401920161035e565b60035f527fc2575a0e9e593c00f959f8c92f12db2869c3395a3b0502d05e2516446f71f85b601f830160051c81019160208410610408575b601f0160051c01905b8181106103fd57506100a0565b5f81556001016103f0565b90915081906103e7565b90607f169061008e565b5f80fdfe608080604052600436101561001c575b50361561001a575f80fd5b005b5f3560e01c90816306fdde0314610e6057508063095ea7b314610db857806313b0b91d14610c4357806318160ddd14610c2657806320a141801461088957806323b872dd1461085157806330dbcca014610819578063313ce567146107fe57806332cb6b0c146107d9578063356e2a1c146107a15780633bc94c981461076957806342966c681461074c578063439af45e1461072f578063551381ae1461070b57806356dfaf39146106e757806357f97815146106c357806370a082311461068c578063715018a6146106315780637813d782146105f957806379cc6790146105c95780637e15e9e3146105a7578063811bc1581461058b5780638da5cb5b1461056357806395a1e9941461054657806395d89b41146104425780639a49090e14610356578063a8711fc914610332578063a9059cbb14610301578063b55e511d146102e4578063b7ea6ea0146102c0578063bc45dca01461029c578063dd62ed3e1461024c578063e4c33227146102285763f2fde38b1461019e575f61000f565b34610224576020366003190112610224576101b7610f42565b6101bf611213565b6001600160a01b0316801561021157600580546001600160a01b0319811683179091556001600160a01b03167f8be0079c531659141344cd1fd0a4f28419497f9722a3daafe3b4186f6b6457e05f80a3005b631e4fbdf760e01b5f525f60045260245ffd5b5f80fd5b34610224575f36600319011261022457602060405169073324c91447914000008152f35b3461022457604036600319011261022457610265610f42565b61026d610f58565b6001600160a01b039182165f908152600160209081526040808320949093168252928352819020549051908152f35b34610224575f36600319011261022457602060405169021e19e0c9bab24000008152f35b34610224575f3660031901126102245760206040516903635c9adc5dea0000008152f35b34610224575f366003190112610224576020600b54604051908152f35b346102245760403660031901126102245761032761031d610f42565b6024359033611042565b602060405160018152f35b34610224575f3660031901126102245760206040516905ede20f01a4598000008152f35b346102245760403660031901126102245761036f610f42565b6024359061037b611213565b6a295be96e6406697200000061039383600d54610f90565b11610408576001600160a01b03169081156103f5577fddf252ad1be2c89b69c2b068fc378daa952ba7f163c4a11628f55a4df523b3ef6020826103d95f94600254610f90565b60025584845283825260408420818154019055604051908152a3005b63ec442f0560e01b5f525f60045260245ffd5b60405162461bcd60e51b815260206004820152601260248201527145786365656473206d617820737570706c7960701b6044820152606490fd5b34610224575f366003190112610224576040515f6004548060011c9060018116801561053c575b6020831081146105285782855290811561050457506001146104a6575b6104a28361049681850382610f6e565b60405191829182610f18565b0390f35b91905060045f527f8a35acfbc15ff81a39ae7d344fd709f28e8600b4aa8c65c6b64bfe7fe36bd19b915f905b8082106104ea57509091508101602001610496610486565b9192600181602092548385880101520191019092916104d2565b60ff191660208086019190915291151560051b840190910191506104969050610486565b634e487b7160e01b5f52602260045260245ffd5b91607f1691610469565b34610224575f366003190112610224576020600d54604051908152f35b34610224575f366003190112610224576005546040516001600160a01b039091168152602090f35b34610224575f3660031901126102245760206040516103e88152f35b34610224575f3660031901126102245760206105c1610faa565b604051908152f35b346102245760403660031901126102245761001a6105e5610f42565b602435906105f4823383611170565b6110ec565b34610224576020366003190112610224576001600160a01b0361061a610f42565b165f526009602052602060405f2054604051908152f35b34610224575f36600319011261022457610649611213565b600580546001600160a01b031981169091555f906001600160a01b03167f8be0079c531659141344cd1fd0a4f28419497f9722a3daafe3b4186f6b6457e08280a3005b34610224576020366003190112610224576001600160a01b036106ad610f42565b165f525f602052602060405f2054604051908152f35b34610224575f3660031901126102245760206040516904a89f54ef0121c000008152f35b34610224575f36600319011261022457602060405169010f0cf064dd592000008152f35b34610224575f366003190112610224576020604051690a968163f0a57b4000008152f35b34610224575f366003190112610224576020600c54604051908152f35b346102245760203660031901126102245761001a600435336110ec565b34610224576020366003190112610224576001600160a01b0361078a610f42565b165f526008602052602060405f2054604051908152f35b34610224576020366003190112610224576001600160a01b036107c2610f42565b165f52600a602052602060405f2054604051908152f35b34610224575f3660031901126102245760206040516a295be96e640669720000008152f35b34610224575f36600319011261022457602060405160128152f35b34610224576020366003190112610224576001600160a01b0361083a610f42565b165f526007602052602060405f2054604051908152f35b346102245760603660031901126102245761032761086d610f42565b610875610f58565b60443591610884833383611170565b611042565b34610224576020366003190112610224576004356108a5611022565b335f52600960205260405f2054620151808101809111610ad5574211610c05575b335f52600a60205260405f205462278d008101809111610ad5574211610be4575b8015610b9f57335f525f6020528060405f205410610b6357335f52600760205269010f0cf064dd592000006109208260405f2054610f90565b11610b2757335f526008602052690a968163f0a57b4000006109468260405f2054610f90565b11610ae957662386f26fc100008102818104662386f26fc1000003610ad557683635c9adc5dea0000090046103e881028181046103e81482151715610ad55761271061099491048092610f9d565b90335f52600760205260405f206109ac848254610f90565b9055335f52600860205260405f206109c5848254610f90565b90556109d183336110ec565b5f80808085335af13d15610ad0573d67ffffffffffffffff8111610abc5760405190610a07601f8201601f191660200183610f6e565b81525f60203d92013e5b15610a805760405191838352602083015260408201527f253c94b98ed629769d87f480eac49a5a5a72fa1e19e0233f0b78c3581682e32b60603392a26040519081527ffd38818f5291bf0bb3a2a48aadc06ba8757865d1dabd804585338aab3009dcb660203392a26001600655005b60405162461bcd60e51b815260206004820152601460248201527310559056081d1c985b9cd9995c8819985a5b195960621b6044820152606490fd5b634e487b7160e01b5f52604160045260245ffd5b610a11565b634e487b7160e01b5f52601160045260245ffd5b60405162461bcd60e51b8152602060048201526016602482015275135bdb9d1a1b1e481b1a5b5a5d08195e18d95959195960521b6044820152606490fd5b60405162461bcd60e51b815260206004820152601460248201527311185a5b1e481b1a5b5a5d08195e18d95959195960621b6044820152606490fd5b60405162461bcd60e51b8152602060048201526014602482015273496e73756666696369656e742062616c616e636560601b6044820152606490fd5b60405162461bcd60e51b815260206004820152601d60248201527f416d6f756e74206d7573742062652067726561746572207468616e20300000006044820152606490fd5b335f5260086020525f6040812055335f52600a6020524260405f20556108e7565b335f5260076020525f6040812055335f5260096020524260405f20556108c6565b34610224575f366003190112610224576020600254604051908152f35b34610224575f36600319011261022457610c5b611022565b600c54620151808101809111610ad5574210610d7b57600d546a295be96e64066972000000811015610d4157610c8f610faa565b6a295be96e64066972000000610ca58284610f90565b11610d0b575b80610cd96040927f85ee8becc55d4250f969916f9c339815f9e41767bc0af6a0bbfd9fa38bfb356694610f90565b600d5542600c55600554610cf89082906001600160a01b031630611042565b8151904282526020820152a16001600655005b50806a295be96e64066972000000036a295be96e64066972000000811115610cab57634e487b7160e01b5f52601160045260245ffd5b60405162461bcd60e51b815260206004820152601260248201527113585e081cdd5c1c1b1e481c995858da195960721b6044820152606490fd5b60405162461bcd60e51b8152602060048201526015602482015274115b5a5cdcda5bdb881d1bdbc8199c995c5d595b9d605a1b6044820152606490fd5b3461022457604036600319011261022457610dd1610f42565b602435903315610e4d576001600160a01b0316908115610e3a57335f52600160205260405f20825f526020528060405f20556040519081527f8c5be1e5ebec7d5bd14f71427d1e84f3dd0314c0f7b2291e5b200ac8c7c3b92560203392a3602060405160018152f35b634a1406b160e11b5f525f60045260245ffd5b63e602df0560e01b5f525f60045260245ffd5b34610224575f366003190112610224575f6003548060011c90600181168015610f0e575b602083108114610528578285529081156105045750600114610eb0576104a28361049681850382610f6e565b91905060035f527fc2575a0e9e593c00f959f8c92f12db2869c3395a3b0502d05e2516446f71f85b915f905b808210610ef457509091508101602001610496610486565b919260018160209254838588010152019101909291610edc565b91607f1691610e84565b602060409281835280519182918282860152018484015e5f828201840152601f01601f1916010190565b600435906001600160a01b038216820361022457565b602435906001600160a01b038216820361022457565b90601f8019910116810190811067ffffffffffffffff821117610abc57604052565b91908201809211610ad557565b91908203918211610ad557565b6301e13380610fbb600b5442610f9d565b04801561101357600181146110045760028114610ff557600314610fe75769021e19e0c9bab240000090565b6903635c9adc5dea00000090565b506904a89f54ef0121c0000090565b506905ede20f01a45980000090565b5069073324c914479140000090565b600260065414611033576002600655565b633ee5aeb560e01b5f5260045ffd5b6001600160a01b03169081156110d9576001600160a01b03169182156103f557815f525f60205260405f20548181106110c057817fddf252ad1be2c89b69c2b068fc378daa952ba7f163c4a11628f55a4df523b3ef92602092855f525f84520360405f2055845f525f825260405f20818154019055604051908152a3565b8263391434e360e21b5f5260045260245260445260645ffd5b634b637e8f60e11b5f525f60045260245ffd5b9091906001600160a01b031680156110d957805f525f60205260405f2054838110611156576020845f94957fddf252ad1be2c89b69c2b068fc378daa952ba7f163c4a11628f55a4df523b3ef938587528684520360408620558060025403600255604051908152a3565b915063391434e360e21b5f5260045260245260445260645ffd5b6001600160a01b039081165f818152600160209081526040808320948616835293905291909120549291905f1984106111aa575b50505050565b8284106111f0578015610e4d576001600160a01b03821615610e3a575f52600160205260405f209060018060a01b03165f5260205260405f20910390555f8080806111a4565b508290637dc7a0d960e11b5f5260018060a01b031660045260245260445260645ffd5b6005546001600160a01b0316330361122757565b63118cdaa760e01b5f523360045260245ffdfea2646970667358221220b42547602fb2486ed3f0d8931805a6ee63639d713ab0f28d69a504a16fb5b6ff64736f6c634300081e0033",
  "linkReferences": {},
  "deployedLinkReferences": {},
  "immutableReferences": {},
  "inputSourceName": "project/contracts/tokens/HoneyDewToken.sol",
  "buildInfoId": "solc-0_8_30-466975d6d0472b3db49d3dca755dd459aef68a6d"
}