{
  "_format": "hh3-artifact-1",
  "contractName": "TerritoryStaking",
  "sourceName": "contracts/core/TerritoryStaking.sol",
  "abi": [
    {
      "inputs": [
        {
          "internalType": "address",
          "name": "_antNFT",
          "type": "address"
        },
        {
          "internalType": "address",
          "name": "_colonyManager",
          "type": "address"
        }
      ],
      "stateMutability": "nonpayable",
      "type": "constructor"
    },
    {
      "inputs": [
        {
          "internalType": "address",
          "name": "owner",
          "type": "address"
        }
      ],
      "name": "OwnableInvalidOwner",
      "type": "error"
    },
    {
      "inputs": [
        {
          "internalType": "address",
          "name": "account",
          "type": "address"
        }
      ],
      "name": "OwnableUnauthorizedAccount",
      "type": "error"
    },
    {
      "inputs": [],
      "name": "ReentrancyGuardReentrantCall",
      "type": "error"
    },
    {
      "anonymous": false,
      "inputs": [
        {
          "indexed": true,
          "internalType": "uint256",
          "name": "battleId",
          "type": "uint256"
        },
        {
          "indexed": false,
          "internalType": "address",
          "name": "attacker",
          "type": "address"
        },
        {
          "indexed": false,
          "internalType": "uint256",
          "name": "territoryId",
          "type": "uint256"
        }
      ],
      "name": "BattleInitiated",
      "type": "event"
    },
    {
      "anonymous": false,
      "inputs": [
        {
          "indexed": true,
          "internalType": "uint256",
          "name": "battleId",
          "type": "uint256"
        },
        {
          "indexed": false,
          "internalType": "address",
          "name": "winner",
          "type": "address"
        },
        {
          "indexed": false,
          "internalType": "uint256",
          "name": "loot",
          "type": "uint256"
        }
      ],
      "name": "BattleResolved",
      "type": "event"
    },
    {
      "anonymous": false,
      "inputs": [
        {
          "indexed": true,
          "internalType": "address",
          "name": "previousOwner",
          "type": "address"
        },
        {
          "indexed": true,
          "internalType": "address",
          "name": "newOwner",
          "type": "address"
        }
      ],
      "name": "OwnershipTransferred",
      "type": "event"
    },
    {
      "anonymous": false,
      "inputs": [
        {
          "indexed": true,
          "internalType": "address",
          "name": "owner",
          "type": "address"
        },
        {
          "indexed": false,
          "internalType": "uint256",
          "name": "territoryId",
          "type": "uint256"
        },
        {
          "indexed": false,
          "internalType": "uint256",
          "name": "amount",
          "type": "uint256"
        }
      ],
      "name": "ResourcesClaimed",
      "type": "event"
    },
    {
      "anonymous": false,
      "inputs": [
        {
          "indexed": true,
          "internalType": "uint256",
          "name": "territoryId",
          "type": "uint256"
        },
        {
          "indexed": false,
          "internalType": "uint256",
          "name": "tier",
          "type": "uint256"
        }
      ],
      "name": "TerritoryCreated",
      "type": "event"
    },
    {
      "anonymous": false,
      "inputs": [
        {
          "indexed": true,
          "internalType": "uint256",
          "name": "territoryId",
          "type": "uint256"
        },
        {
          "indexed": true,
          "internalType": "address",
          "name": "owner",
          "type": "address"
        },
        {
          "indexed": false,
          "internalType": "uint256[]",
          "name": "antIds",
          "type": "uint256[]"
        }
      ],
      "name": "TerritoryStaked",
      "type": "event"
    },
    {
      "anonymous": false,
      "inputs": [
        {
          "indexed": true,
          "internalType": "uint256",
          "name": "territoryId",
          "type": "uint256"
        },
        {
          "indexed": true,
          "internalType": "address",
          "name": "owner",
          "type": "address"
        }
      ],
      "name": "TerritoryUnstaked",
      "type": "event"
    },
    {
      "inputs": [],
      "name": "BATTLE_COOLDOWN",
      "outputs": [
        {
          "internalType": "uint256",
          "name": "",
          "type": "uint256"
        }
      ],
      "stateMutability": "view",
      "type": "function"
    },
    {
      "inputs": [],
      "name": "BATTLE_TIMEOUT",
      "outputs": [
        {
          "internalType": "uint256",
          "name": "",
          "type": "uint256"
        }
      ],
      "stateMutability": "view",
      "type": "function"
    },
    {
      "inputs": [],
      "name": "CLAIM_COOLDOWN",
      "outputs": [
        {
          "internalType": "uint256",
          "name": "",
          "type": "uint256"
        }
      ],
      "stateMutability": "view",
      "type": "function"
    },
    {
      "inputs": [],
      "name": "MAX_TERRITORIES_PER_PLAYER",
      "outputs": [
        {
          "internalType": "uint256",
          "name": "",
          "type": "uint256"
        }
      ],
      "stateMutability": "view",
      "type": "function"
    },
    {
      "inputs": [],
      "name": "TIER_1_BASE_REWARD",
      "outputs": [
        {
          "internalType": "uint256",
          "name": "",
          "type": "uint256"
        }
      ],
      "stateMutability": "view",
      "type": "function"
    },
    {
      "inputs": [],
      "name": "TIER_1_SLOTS",
      "outputs": [
        {
          "internalType": "uint256",
          "name": "",
          "type": "uint256"
        }
      ],
      "stateMutability": "view",
      "type": "function"
    },
    {
      "inputs": [],
      "name": "TIER_2_BASE_REWARD",
      "outputs": [
        {
          "internalType": "uint256",
          "name": "",
          "type": "uint256"
        }
      ],
      "stateMutability": "view",
      "type": "function"
    },
    {
      "inputs": [],
      "name": "TIER_2_SLOTS",
      "outputs": [
        {
          "internalType": "uint256",
          "name": "",
          "type": "uint256"
        }
      ],
      "stateMutability": "view",
      "type": "function"
    },
    {
      "inputs": [],
      "name": "TIER_3_BASE_REWARD",
      "outputs": [
        {
          "internalType": "uint256",
          "name": "",
          "type": "uint256"
        }
      ],
      "stateMutability": "view",
      "type": "function"
    },
    {
      "inputs": [],
      "name": "TIER_3_SLOTS",
      "outputs": [
        {
          "internalType": "uint256",
          "name": "",
          "type": "uint256"
        }
      ],
      "stateMutability": "view",
      "type": "function"
    },
    {
      "inputs": [],
      "name": "TIER_4_BASE_REWARD",
      "outputs": [
        {
          "internalType": "uint256",
          "name": "",
          "type": "uint256"
        }
      ],
      "stateMutability": "view",
      "type": "function"
    },
    {
      "inputs": [],
      "name": "TIER_4_SLOTS",
      "outputs": [
        {
          "internalType": "uint256",
          "name": "",
          "type": "uint256"
        }
      ],
      "stateMutability": "view",
      "type": "function"
    },
    {
      "inputs": [],
      "name": "TIER_5_BASE_REWARD",
      "outputs": [
        {
          "internalType": "uint256",
          "name": "",
          "type": "uint256"
        }
      ],
      "stateMutability": "view",
      "type": "function"
    },
    {
      "inputs": [],
      "name": "TIER_5_SLOTS",
      "outputs": [
        {
          "internalType": "uint256",
          "name": "",
          "type": "uint256"
        }
      ],
      "stateMutability": "view",
      "type": "function"
    },
    {
      "inputs": [],
      "name": "antNFT",
      "outputs": [
        {
          "internalType": "contract IAntNFT",
          "name": "",
          "type": "address"
        }
      ],
      "stateMutability": "view",
      "type": "function"
    },
    {
      "inputs": [
        {
          "internalType": "uint256",
          "name": "",
          "type": "uint256"
        }
      ],
      "name": "battleRequests",
      "outputs": [
        {
          "internalType": "address",
          "name": "attacker",
          "type": "address"
        },
        {
          "internalType": "uint256",
          "name": "territoryId",
          "type": "uint256"
        },
        {
          "internalType": "uint256",
          "name": "requestTime",
          "type": "uint256"
        },
        {
          "internalType": "bool",
          "name": "resolved",
          "type": "bool"
        }
      ],
      "stateMutability": "view",
      "type": "function"
    },
    {
      "inputs": [
        {
          "internalType": "uint256",
          "name": "territoryId",
          "type": "uint256"
        }
      ],
      "name": "claimResources",
      "outputs": [],
      "stateMutability": "nonpayable",
      "type": "function"
    },
    {
      "inputs": [],
      "name": "colonyManager",
      "outputs": [
        {
          "internalType": "contract IColonyManager",
          "name": "",
          "type": "address"
        }
      ],
      "stateMutability": "view",
      "type": "function"
    },
    {
      "inputs": [
        {
          "internalType": "uint256",
          "name": "tier",
          "type": "uint256"
        }
      ],
      "name": "createTerritory",
      "outputs": [],
      "stateMutability": "nonpayable",
      "type": "function"
    },
    {
      "inputs": [
        {
          "internalType": "address",
          "name": "player",
          "type": "address"
        }
      ],
      "name": "getPlayerTerritories",
      "outputs": [
        {
          "internalType": "uint256[]",
          "name": "",
          "type": "uint256[]"
        }
      ],
      "stateMutability": "view",
      "type": "function"
    },
    {
      "inputs": [
        {
          "internalType": "uint256",
          "name": "territoryId",
          "type": "uint256"
        }
      ],
      "name": "getTerritoryDetails",
      "outputs": [
        {
          "internalType": "uint256",
          "name": "tier",
          "type": "uint256"
        },
        {
          "internalType": "address",
          "name": "owner",
          "type": "address"
        },
        {
          "internalType": "uint256[]",
          "name": "stakedAnts",
          "type": "uint256[]"
        },
        {
          "internalType": "uint256",
          "name": "totalPower",
          "type": "uint256"
        },
        {
          "internalType": "uint256",
          "name": "unclaimedRewards",
          "type": "uint256"
        },
        {
          "internalType": "bool",
          "name": "isActive",
          "type": "bool"
        }
      ],
      "stateMutability": "view",
      "type": "function"
    },
    {
      "inputs": [
        {
          "internalType": "uint256",
          "name": "tier",
          "type": "uint256"
        }
      ],
      "name": "getTierBaseReward",
      "outputs": [
        {
          "internalType": "uint256",
          "name": "",
          "type": "uint256"
        }
      ],
      "stateMutability": "pure",
      "type": "function"
    },
    {
      "inputs": [
        {
          "internalType": "uint256",
          "name": "tier",
          "type": "uint256"
        }
      ],
      "name": "getTierSlots",
      "outputs": [
        {
          "internalType": "uint256",
          "name": "",
          "type": "uint256"
        }
      ],
      "stateMutability": "pure",
      "type": "function"
    },
    {
      "inputs": [
        {
          "internalType": "uint256",
          "name": "territoryId",
          "type": "uint256"
        }
      ],
      "name": "getUnclaimedRewards",
      "outputs": [
        {
          "internalType": "uint256",
          "name": "",
          "type": "uint256"
        }
      ],
      "stateMutability": "view",
      "type": "function"
    },
    {
      "inputs": [
        {
          "internalType": "uint256",
          "name": "territoryId",
          "type": "uint256"
        },
        {
          "internalType": "uint256[]",
          "name": "attackerAnts",
          "type": "uint256[]"
        }
      ],
      "name": "initiateBattle",
      "outputs": [],
      "stateMutability": "nonpayable",
      "type": "function"
    },
    {
      "inputs": [
        {
          "internalType": "address",
          "name": "",
          "type": "address"
        }
      ],
      "name": "lastBattleTime",
      "outputs": [
        {
          "internalType": "uint256",
          "name": "",
          "type": "uint256"
        }
      ],
      "stateMutability": "view",
      "type": "function"
    },
    {
      "inputs": [],
      "name": "owner",
      "outputs": [
        {
          "internalType": "address",
          "name": "",
          "type": "address"
        }
      ],
      "stateMutability": "view",
      "type": "function"
    },
    {
      "inputs": [
        {
          "internalType": "address",
          "name": "",
          "type": "address"
        },
        {
          "internalType": "uint256",
          "name": "",
          "type": "uint256"
        }
      ],
      "name": "playerTerritories",
      "outputs": [
        {
          "internalType": "uint256",
          "name": "",
          "type": "uint256"
        }
      ],
      "stateMutability": "view",
      "type": "function"
    },
    {
      "inputs": [],
      "name": "renounceOwnership",
      "outputs": [],
      "stateMutability": "nonpayable",
      "type": "function"
    },
    {
      "inputs": [
        {
          "internalType": "uint256",
          "name": "battleId",
          "type": "uint256"
        }
      ],
      "name": "resolveBattle",
      "outputs": [],
      "stateMutability": "nonpayable",
      "type": "function"
    },
    {
      "inputs": [
        {
          "internalType": "uint256",
          "name": "territoryId",
          "type": "uint256"
        },
        {
          "internalType": "uint256[]",
          "name": "antIds",
          "type": "uint256[]"
        }
      ],
      "name": "stakeAnts",
      "outputs": [],
      "stateMutability": "nonpayable",
      "type": "function"
    },
    {
      "inputs": [
        {
          "internalType": "uint256",
          "name": "",
          "type": "uint256"
        }
      ],
      "name": "territories",
      "outputs": [
        {
          "internalType": "uint256",
          "name": "id",
          "type": "uint256"
        },
        {
          "internalType": "uint256",
          "name": "tier",
          "type": "uint256"
        },
        {
          "internalType": "address",
          "name": "owner",
          "type": "address"
        },
        {
          "internalType": "uint256",
          "name": "lastClaimTime",
          "type": "uint256"
        },
        {
          "internalType": "uint256",
          "name": "totalPower",
          "type": "uint256"
        },
        {
          "internalType": "bool",
          "name": "isActive",
          "type": "bool"
        }
      ],
      "stateMutability": "view",
      "type": "function"
    },
    {
      "inputs": [
        {
          "internalType": "address",
          "name": "newOwner",
          "type": "address"
        }
      ],
      "name": "transferOwnership",
      "outputs": [],
      "stateMutability": "nonpayable",
      "type": "function"
    },
    {
      "inputs": [
        {
          "internalType": "uint256",
          "name": "territoryId",
          "type": "uint256"
        },
        {
          "internalType": "uint256[]",
          "name": "antIds",
          "type": "uint256[]"
        }
      ],
      "name": "unstakeAnts",
      "outputs": [],
      "stateMutability": "nonpayable",
      "type": "function"
    },
    {
      "stateMutability": "payable",
      "type": "receive"
    }
  ],
  "bytecode": "0x608060405234610806576128e26040813803918261001c81610829565b9384928339810103126108065761003e60206100378361084e565b920161084e565b9033156107f3575f8054336001600160a01b0319821681178355916001600160a01b03909116907f8be0079c531659141344cd1fd0a4f28419497f9722a3daafe3b4186f6b6457e09080a36001808055600255600780546001600160a01b039283166001600160a01b031991821617909155600880549390921692169190911790555f5b600a8110610691575f5b6005811061052b575f5b600381106103ca576002545f19811461037c57600181016002556020906100fc82610829565b5f81525f36813761010b61080a565b82815260048482019081525f6040808401828152606085019586526080850183815260a08601848152600160c088018181528a87526003808d52959096209751885595519587019590955590516002860180546001600160a01b0319166001600160a01b039290921691909117905594518051929592918501906001600160401b0383116103685768010000000000000000831161036857889082548484558085106103a2575b5001905f52875f205f5b83811061039057505050509060069291516004830155516005820155019051151560ff801983541691161790555f5160206128c25f395f51905f528260405160048152a26002545f19811461037c576001810160025561021b82610829565b915f83525f36813761022b61080a565b82815260058282019081525f6040808401828152606085019788526080850183815260a08601848152600160c088018181528a87526003808b52959096209751885595519587019590955590516002860180546001600160a01b0319166001600160a01b03929092169190911790559651805194979294918801906001600160401b038311610368576801000000000000000083116103685786908254848455808510610340575b5001905f52855f205f5b83811061032e57885f5160206128c25f395f51905f52898960068e8b8b516004830155516005820155019051151560ff8019835416911617905560405160058152a260405161205f90816108638239f35b825182820155918701916001016102dd565b835f5284835f2091820191015b81811061035a57506102d3565b5f815589935060010161034d565b634e487b7160e01b5f52604160045260245ffd5b634e487b7160e01b5f52601160045260245ffd5b825182820155918901916001016101bc565b835f5284835f2091820191015b8181106103bc57506101b2565b5f81558b93506001016103af565b600254905f19821461037c57600182016002556020916103e983610829565b925f84525f3681376103f961080a565b82815260038282018181525f604080850182815260608601998a526080860183815260a08701848152600160c089018181528b8752888b529490952097518855945193870193909355516002860180546001600160a01b0319166001600160a01b0392909216919091179055975180519098949384016001600160401b03821161036857680100000000000000008211610368578660019a8254848455808510610504575b5001905f52865f205f5b8381106104f35750505050916006915f5160206128c25f395f51905f52959493516004830155516005820155019051151560ff8019835416911617905560405160038152a2016100d6565b825182820155918801918b016104a8565b835f5284835f2091820191015b81811061051e575061049e565b5f81558a93508d01610511565b600254905f19821461037c576001820160025560209161054a83610829565b925f84525f36813761055a61080a565b82815260028282018181525f604080850182815260608601998a526080860183815260a08701848152600160c089018181528b87526003808c529590962098518955955195880195909555905194860180546001600160a01b0319166001600160a01b0396909616959095179094559751805190989194939184016001600160401b03821161036857680100000000000000008211610368578660019a825484845580851061066a575b5001905f52865f205f5b8381106106595750505050916006915f5160206128c25f395f51905f52959493516004830155516005820155019051151560ff8019835416911617905560405160028152a2016100cc565b825182820155918801918b0161060e565b835f5284835f2091820191015b8181106106845750610604565b5f81558a93508d01610677565b600254905f19821461037c57600182016002556020916106b083610829565b925f84525f3681376106c061080a565b82815260018282018181525f604080850182815260608601998a526080860183815260a0870184815260c088018781528a86526003808b529490952097518855945195870195909555516002860180546001600160a01b0319166001600160a01b03929092169190911790559751805190989194939184016001600160401b03821161036857680100000000000000008211610368578660019a82548484558085106107cc575b5001905f52865f205f5b8381106107bb5750505050916006915f5160206128c25f395f51905f52959493516004830155516005820155019051151560ff80198354169116179055604051858152a2016100c2565b825182820155918801918b01610771565b835f5284835f2091820191015b8181106107e65750610767565b5f81558a93508d016107d9565b631e4fbdf760e01b5f525f60045260245ffd5b5f80fd5b6040519060e082016001600160401b0381118382101761036857604052565b6040519190601f01601f191682016001600160401b0381118382101761036857604052565b51906001600160a01b03821682036108065756fe608080604052600436101561001c575b50361561001a575f80fd5b005b5f3560e01c9081631f19565d14611a185750806323e714e01461026a578063248d5da2146119f75780633208ea3b146119d957806337c909ec146119bc5780633f550b421461196457806343e44516146115bd5780635f44fc901461159c57806361ccf4f71461157b578063647ff132146114ed5780636ab0230114611387578063715018a614611330578063739cc889146112e057806377c1c9a7146112c5578063786ebcb11461113e5780637efb75b9146110d0578063873b3da1146110b457806387bb3cd6146110925780638c2302601461106a5780638d7c3ec7146110115780638da5cb5b14610fea5780639d98858114610fcf578063a616ebf814610fb3578063ae3fc3ee14610c6d578063b68a030914610c4c578063d2d8778014610c2e578063d93705a51461077a578063e13fab02146102b0578063e46cdbac14610295578063ecae1f4b1461026f578063f0091b0d1461026a578063f2fde38b146101e5578063f4776327146101ca5763f54e6f631461019e575f61000f565b346101c6575f3660031901126101c6576007546040516001600160a01b039091168152602090f35b5f80fd5b346101c6575f3660031901126101c657602060405160038152f35b346101c65760203660031901126101c6576101fe611a4c565b610206612003565b6001600160a01b03168015610257575f80546001600160a01b03198116831782556001600160a01b0316907f8be0079c531659141344cd1fd0a4f28419497f9722a3daafe3b4186f6b6457e09080a3005b631e4fbdf760e01b5f525f60045260245ffd5b611a62565b346101c65760203660031901126101c657602061028d600435611f7c565b604051908152f35b346101c6575f3660031901126101c657602060405160018152f35b346101c6576102be36611aa6565b6102c9929192611fe3565b815f52600360205260405f206102e560ff600683015416611b78565b6002810180546001600160a01b03168015929061030b9084908115610770575b50611d64565b610316841515611bbb565b6103236001820154611b30565b9283851161073757600382019361033b868654611bfa565b116106f9576106a0575b60058101918254935f905b86821061048257505080546001600160a01b03161561044a575b505055600854600a808302916001600160a01b0316908204830361043657803b156101c657604051633cc01ef160e21b815233600482015260248101929092525f908290604490829084905af1801561042b5761041b575b50604051602080825281018290526001600160fb1b0382116101c6577f503dff65662ae1e85950d3e524edd07090060795d969a7895068f6cfb990e87b9160051b8094604083013760408133958101030190a360018055005b5f61042591611c17565b836103c2565b6040513d5f823e3d90fd5b634e487b7160e01b5f52601160045260245ffd5b80546001600160a01b031916339081179091555f908152600460205260409020610475908690611e3c565b600442910155858061036a565b600754919590916001600160a01b031661049d87898c611c07565b6040516331a9108f60e11b815290356004820152602081602481855afa801561042b576104dc915f91610672575b506001600160a01b03163314611c58565b6104e787898c611c07565b604051635d528fc360e11b815290356004820152602081602481855afa90811561042b575f91610644575b5061060a5761052287898c611c07565b35813b156101c6575f91604483926040519485938492635390271560e01b84526004840152600160248401525af1801561042b576105fa575b5061057161056a87898c611c07565b3583611e3c565b6007546001600160a01b0316602061058a888a8d611c07565b35602460405180948193630cd3193360e11b835260048301525afa90811561042b575f916105c8575b506105c090600192611bfa565b950190610350565b90506020813d82116105f2575b816105e260209383611c17565b810103126101c6575160016105b3565b3d91506105d5565b5f61060491611c17565b8961055b565b60405162461bcd60e51b8152602060048201526012602482015271105b9d08185b1c9958591e481cdd185ad95960721b6044820152606490fd5b610665915060203d811161066b575b61065d8183611c17565b810190611c97565b8b610512565b503d610653565b610693915060203d8111610699575b61068b8183611c17565b810190611c39565b8c6104cb565b503d610681565b335f526004602052600560405f2054106103455760405162461bcd60e51b815260206004820152601760248201527f4d6178207465727269746f7269657320726561636865640000000000000000006044820152606490fd5b60405162461bcd60e51b8152602060048201526016602482015275576f756c6420657863656564206d617820736c6f747360501b6044820152606490fd5b60405162461bcd60e51b815260206004820152601160248201527045786365656473206d617820736c6f747360781b6044820152606490fd5b9050331488610305565b346101c65760203660031901126101c657600435610796611fe3565b805f52600560205260405f2090600482019060ff825416610bf65760038301546103848101809111610436574210610bbe57600183019081545f52600360205260405f209060028501908154936107ec85611def565b60075490956001600160a01b03909116935f5b828110610b3b575050506003840192835461081981611def565b945f5b828110610ab857505050505f955f945f975b87518910156108565761084e6001916108478b8b611ddb565b5190611bfa565b98019761082e565b959650885f975b865189101561087e576108766001916108478b8a611ddb565b98019761085d565b905f82891115610a7d575080546001600160a01b03169160148082029180159083049091141715610436576064900492600281019560018060a01b03875416806109d2575b50825487546001600160a01b0319166001600160a01b039182161790975582549096165f9081526004602052604090209554949593949293919290916109099190611e3c565b6004429101558261096c575b507fc85097f9623f9aa19887350307755ffa817b32afe05876349bc770aae879e3d8925b805460ff19166001179055604080516001600160a01b039092168252602082019290925290819081015b0390a260018055005b545f9081908190819086906001600160a01b03165af161098a611d9c565b50156109965784610915565b60405162461bcd60e51b8152602060048201526014602482015273131bdbdd081d1c985b9cd9995c8819985a5b195960621b6044820152606490fd5b5f52600460205260405f20905f5b825480821015610a6b576109f48285611a7d565b90549060031b1c835414610a0b57506001016109e0565b93949596979891925f19850194851161043657610a5b610a6092610a43610a356109099885611a7d565b90549060031b1c9184611a7d565b90919082549060031b91821b915f19901b1916179055565b611e5f565b9695949392916108c3565b50509050610909919293949596610a60565b93929150507fc85097f9623f9aa19887350307755ffa817b32afe05876349bc770aae879e3d89350600260018060a01b039101541690610939565b610ac28183611a7d565b9054604051630cd3193360e11b815260039290921b1c600482015290602082602481885afa801561042b575f90610b09575b60019250610b02828a611ddb565b520161081c565b506020823d8211610b33575b81610b2260209383611c17565b810103126101c65760019151610af4565b3d9150610b15565b610b458183611a7d565b9054604051630cd3193360e11b815260039290921b1c6004820152906020826024818a5afa801561042b575f90610b8c575b60019250610b85828b611ddb565b52016107ff565b506020823d8211610bb6575b81610ba560209383611c17565b810103126101c65760019151610b77565b3d9150610b98565b60405162461bcd60e51b815260206004820152601060248201526f426174746c65206e6f7420726561647960801b6044820152606490fd5b60405162461bcd60e51b815260206004820152601060248201526f105b1c9958591e481c995cdbdb1d995960821b6044820152606490fd5b346101c65760203660031901126101c657602061028d600435611e9a565b346101c6575f3660031901126101c657602060405166f8b0a10e4700008152f35b346101c657610c7b36611aa6565b9190610c85611fe3565b815f52600360205260405f20906002820191610cab60018060a01b038454163314611d64565b610cb6851515611bbb565b6003810191825495610cc787611caf565b91610cd56040519384611c17565b878352601f19610ce489611caf565b013660208501375f5b828110610f61575050506005820194855492610d095f98611def565b955f985b86548a1015610e4a57610d208a86611ddb565b51610d5557610d4c600191610d358c8a611a7d565b90549060031b1c610d46828c611ddb565b52611e2e565b995b0198610d0d565b600754909995906001600160a01b0316610d6f8789611a7d565b90549060031b1c813b156101c6575f91604483926040519485938492635390271560e01b845260048401528160248401525af1801561042b57610e3a575b506007546001600160a01b03166020610dc6888a611a7d565b90549060031b1c602460405180948193630cd3193360e11b835260048301525afa90811561042b575f91610e08575b50610e0290600192611e21565b95610d4e565b90506020813d8211610e32575b81610e2260209383611c17565b810103126101c657516001610df5565b3d9150610e15565b5f610e4491611c17565b8a610dad565b858988928a84545f865580610f3d575b505f5b828110610f2057505050555415610e9b575b33837f7fb1f4df0dd9df48ef9c7614cc7eaa994797668c16e3ee2b490e72e98e8473b05f80a360018055005b335f52600460205260405f20905f5b825480821015610f125785610ebf8386611a7d565b90549060031b1c14610ed45750600101610eaa565b929391905f1984019384116104365784610a5b610efb92610a43610a356004985f9a611a7d565b80546001600160a01b031916905501558180610e6f565b505060049150915f92610efb565b80610f37610f3060019385611ddb565b5188611e3c565b01610e5d565b855f5260205f20908101905b818110610f565750610e5a565b5f8155600101610f49565b5f5b898110610f74575b50600101610ced565b610f7e8188611a7d565b90549060031b1c610f90838686611c07565b3514610f9e57600101610f63565b906001610fac819387611ddb565b5290610f6b565b346101c6575f3660031901126101c65760206040516103848152f35b346101c6575f3660031901126101c657602060405160148152f35b346101c6575f3660031901126101c6575f546040516001600160a01b039091168152602090f35b346101c65760203660031901126101c6576004355f526005602052608060405f2060018060a01b038154169060018101549060ff6004600383015492015416916040519384526020840152604083015215156060820152f35b346101c6575f3660031901126101c6576008546040516001600160a01b039091168152602090f35b346101c6575f3660031901126101c6576020604051670214e8348c4f00008152f35b346101c6575f3660031901126101c657602060405161a8c08152f35b346101c65760203660031901126101c6576004355f52600360205260c060405f2080549060018101549060018060a01b0360028201541660048201549060ff6006600585015494015416936040519586526020860152604085015260608401526080830152151560a0820152f35b346101c65760203660031901126101c65760043561115a612003565b60025461116681611e2e565b6002556020604051926111798285611c17565b5f84525f3681376040519360e0850185811067ffffffffffffffff8211176112b1576040528385528285019082825260408601905f82526060870190815260808701905f825260a08801925f845260c089019460018652885f526003885260405f2099518a555160018a015560018060a01b03905116600289019060018060a01b03166bffffffffffffffffffffffff60a01b8254161790556003880190519081519167ffffffffffffffff83116112b15787906112378484611cda565b01905f52865f205f5b83811061129f57897f1238c12c0012658c1abdb121b84b174929372b02b1a7eb9a8e2d8936cee35b4a8a8a6112968f60068d8d8d51600485015551600584015551151591019060ff801983541691151516179055565b604051908152a2005b82518282015591880191600101611240565b634e487b7160e01b5f52604160045260245ffd5b346101c6575f3660031901126101c6576020604051600a8152f35b346101c65760203660031901126101c6576001600160a01b03611301611a4c565b165f52600460205261132c61131860405f20611d1a565b604051918291602083526020830190611afd565b0390f35b346101c6575f3660031901126101c657611348612003565b5f80546001600160a01b0319811682556001600160a01b03167f8be0079c531659141344cd1fd0a4f28419497f9722a3daafe3b4186f6b6457e08280a3005b346101c65760203660031901126101c6576004356113a3611fe3565b805f526003602052600460405f206113c860018060a01b036002830154163314611d64565b0180546201518081018091116104365742106114b0576113e782611e9a565b908115611475574290555f80808084335af1611401611d9c565b501561143e5760405191825260208201527fe090b42f92e85a6751e8fe4e50c0420e3d8bc97d6dbf5f100b09172ceef1249c60403392a260018055005b60405162461bcd60e51b815260206004820152600f60248201526e151c985b9cd9995c8819985a5b1959608a1b6044820152606490fd5b60405162461bcd60e51b81526020600482015260136024820152724e6f207265776172647320746f20636c61696d60681b6044820152606490fd5b60405162461bcd60e51b8152602060048201526015602482015274436c61696d20636f6f6c646f776e2061637469766560581b6044820152606490fd5b346101c65760203660031901126101c657600435805f52600360205260405f209060018201549060018060a01b0360028401541692611530600582015492611e9a565b611565611547600360ff6006860154169401611d1a565b6040519687968752602087015260c0604087015260c0860190611afd565b9260608501526080840152151560a08301520390f35b346101c6575f3660031901126101c657602060405166354a6ba7a180008152f35b346101c6575f3660031901126101c6576020604051666a94d74f4300008152f35b346101c6576115cb36611aa6565b6115d6929192611fe3565b815f52600360205260405f206115f260ff600683015416611b78565b600201546001600160a01b0316331461191f57611610811515611bbb565b335f52600660205260405f205461a8c081018091116104365742106118e8576007546001600160a01b03165f5b8281106117eb57505060405160208101904282523360601b60408201528360548201526054815261166f607482611c17565b519020926040519160a0830183811067ffffffffffffffff8211176112b15760405233835260208301918483526116a582611caf565b916116b36040519384611c17565b808352602083019060051b8201913683116101c657905b8282106117db57505050604083810191825242606085019081525f608086018181528882526005602052929020945185546001600160a01b0319166001600160a01b0391909116178555925160018501559051805191929190600285019067ffffffffffffffff83116112b1576020906117448484611cda565b01905f5260205f205f5b8381106117c757887f5d425405183107110888126854253f927e5301f8bd3a00ff0fe825dd6c7595cb6109638a61179f8b60048c8c51600384015551151591019060ff801983541691151516179055565b335f818152600660209081526040918290204290558151928352820192909252918291820190565b60019060208451940193818401550161174e565b81358152602091820191016116ca565b6117f6818487611c07565b6040516331a9108f60e11b815290356004820152602081602481865afa801561042b57611834915f916118ca57506001600160a01b03163314611c58565b61183f818487611c07565b604051635d528fc360e11b815290356004820152602081602481865afa90811561042b575f916118ac575b506118775760010161163d565b60405162461bcd60e51b815260206004820152600d60248201526c105b9d081a5cc81cdd185ad959609a1b6044820152606490fd5b6118c4915060203d811161066b5761065d8183611c17565b8661186a565b6118e2915060203d81116106995761068b8183611c17565b876104cb565b60405162461bcd60e51b815260206004820152600f60248201526e2130ba3a36329031b7b7b63237bbb760891b6044820152606490fd5b60405162461bcd60e51b815260206004820152601b60248201527f43616e6e6f742061747461636b206f776e207465727269746f727900000000006044820152606490fd5b346101c65760403660031901126101c65761197d611a4c565b6001600160a01b03165f908152600460205260409020805460243591908210156101c6576020916119ad91611a7d565b90549060031b1c604051908152f35b346101c6575f3660031901126101c6576020604051620151808152f35b346101c65760203660031901126101c657602061028d600435611b30565b346101c6575f3660031901126101c65760206040516611c37937e080008152f35b346101c65760203660031901126101c6576020906001600160a01b03611a3c611a4c565b165f526006825260405f20548152f35b600435906001600160a01b03821682036101c657565b346101c6575f3660031901126101c657602060405160058152f35b8054821015611a92575f5260205f2001905f90565b634e487b7160e01b5f52603260045260245ffd5b60406003198201126101c6576004359160243567ffffffffffffffff81116101c657826023820112156101c65780600401359267ffffffffffffffff84116101c65760248460051b830101116101c6576024019190565b90602080835192838152019201905f5b818110611b1a5750505090565b8251845260209384019390920191600101611b0d565b60018114611b725760028114611b6c5760038114611b665760048114611b6057600514611b5b575f90565b601490565b50600a90565b50600590565b50600390565b50600190565b15611b7f57565b60405162461bcd60e51b81526020600482015260146024820152735465727269746f7279206e6f742061637469766560601b6044820152606490fd5b15611bc257565b60405162461bcd60e51b815260206004820152601060248201526f139bc8185b9d1cc81c1c9bdd9a59195960821b6044820152606490fd5b9190820180921161043657565b9190811015611a925760051b0190565b90601f8019910116810190811067ffffffffffffffff8211176112b157604052565b908160209103126101c657516001600160a01b03811681036101c65790565b15611c5f57565b60405162461bcd60e51b815260206004820152601060248201526f139bdd081bdddb995c881bd988185b9d60821b6044820152606490fd5b908160209103126101c6575180151581036101c65790565b67ffffffffffffffff81116112b15760051b60200190565b8181029291811591840414171561043657565b90600160401b81116112b157815491818155828210611cf857505050565b5f5260205f2091820191015b818110611d0f575050565b5f8155600101611d04565b90604051918281549182825260208201905f5260205f20925f5b818110611d4b575050611d4992500383611c17565b565b8454835260019485019487945060209093019201611d34565b15611d6b57565b60405162461bcd60e51b81526020600482015260096024820152682737ba1037bbb732b960b91b6044820152606490fd5b3d15611dd6573d9067ffffffffffffffff82116112b15760405191611dcb601f8201601f191660200184611c17565b82523d5f602084013e565b606090565b8051821015611a925760209160051b010190565b90611df982611caf565b611e066040519182611c17565b8281528092611e17601f1991611caf565b0190602036910137565b9190820391821161043657565b5f1981146104365760010190565b90815491600160401b8310156112b15782610a43916001611d4995018155611a7d565b80548015611e86575f190190611e758282611a7d565b8154905f199060031b1b1916905555565b634e487b7160e01b5f52603160045260245ffd5b5f90815260036020526040902060028101546001600160a01b0316158015611f70575b611f6b5762015180611ed3600483015442611e21565b04908115611f6557611ee86001820154611f7c565b60038201546064928115908115611f16575b50505090611f0d606493611f1293611cc7565b611cc7565b0490565b6005015491938281029280159084048214171561043657808502948504141715610436578215611f51579190910490611f0d83611f12611efa565b634e487b7160e01b5f52601260045260245ffd5b50505f90565b505f90565b50600481015415611ebd565b60018114611fd75760028114611fcb5760038114611fbf5760048114611fb357600514611fa7575f90565b670214e8348c4f000090565b5066f8b0a10e47000090565b50666a94d74f43000090565b5066354a6ba7a1800090565b506611c37937e0800090565b600260015414611ff4576002600155565b633ee5aeb560e01b5f5260045ffd5b5f546001600160a01b0316330361201657565b63118cdaa760e01b5f523360045260245ffdfea2646970667358221220bb253d67c54d1877828b9abcb0e3ccc5498100830739ce4a80fc46fac024942f64736f6c634300081e00331238c12c0012658c1abdb121b84b174929372b02b1a7eb9a8e2d8936cee35b4a",
  "linkReferences": {},
  "deployedLinkReferences": {},
  "immutableReferences": {},
  "inputSourceName": "project/contracts/core/TerritoryStaking.sol",
  "buildInfoId": "solc-0_8_30-2c114b9512aec61474bdb0ab9baa6c7e5bb759fd"
}